:020000040800F2
:10000000180B0020A10100088B350008B72D00084F
:10001000893500080D0A00087D4000080000000036
:100020000000000000000000000000003937000858
:100030004B0A0008000000008D3500083B3700081F
:10004000BB010008BB010008BB010008BB010008A0
:10005000BB010008BB010008BB010008BB01000890
:10006000BB010008BB010008BB010008110A000821
:10007000BB010008BB010008BB010008BB01000870
:10008000BB010008BB010008F1080008BB01000823
:10009000BB010008BB010008BB010008BB01000850
:1000A000BB010008BB010008BB010008BB01000840
:1000B000BB0100080000000000000000BB010008B8
:1000C000BB010008BB010008BB010008BB01000820
:1000D000BB01000865400008BB0100087140000832
:1000E000BB010008BB010008000000000000000088
:1000F0000000000000000000000000000000000000
:1001000000000000BB01000800000000BB01000867
:100110000000000000000000BB010008BB01000857
:10012000BB010008BB010008BB010008BB010008BF
:10013000BB010008000000000000000000000000FB
:10014000BB010008BB010008BB010008BB0100089F
:10015000BB010008BB010008BB010008BB0100088F
:10016000BB010008BB010008BB0100080000000043
:10017000BB010008BB010008BB0100080000000033
:10018000BB010008BB010008BB010008DFF80CD070
:1001900000F0C8FA00480047714A0008180B002018
:1001A0000648804706480047FEE7FEE7FEE7FEE711
:1001B000FEE7FEE7FEE7FEE7FEE7FEE7D1370008D1
:1001C0008D0100082DE9F05F0546002092469B4610
:1001D00088460646814640241BE02846414647465D
:1001E000224600F093F853465A46C01A914110D364
:1001F00011461846224600F07AF82D1A67EB0108DE
:100200004F4622460120002100F071F817EB00094B
:100210004E41201EA4F10104DFDC484631462A4647
:10022000434600F000B830BCBDE8C09FD2B201E048
:1002300000F8012B491EFBD270470022F6E710B5EB
:1002400013460A4604461946FFF7F0FF204610BD44
:1002500030B505462A460B4612F8010B13F8014B40
:1002600008B1A042F8D01CB1002802D06D1CF1E703
:10027000284630BD421C10F8011B0029FBD1801A12
:10028000704770B5064603F047FF046805460A222A
:100290000021304600F04AF82C6070BD00F00042AA
:1002A00030F000400AD0C10D01F56071C0F31600B6
:1002B00042EA0151C208400711437047002001463D
:1002C000704730B50B46014600202022012409E08A
:1002D00021FA02F59D4205D303FA02F5491B04FAFF
:1002E00002F52844151EA2F10102F1DC30BD202ADE
:1002F00004DB203A00FA02F1002070479140C2F17D
:10030000200320FA03F3194390407047202A04DBAE
:10031000203A21FA02F00021704721FA02F3D0407E
:10032000C2F1200291400843194670472DE9F04779
:1003300091460F4680460446002614F8015B2DB115
:1003400000F014FA0068405DC007F6D12B2D02D0F2
:100350002D2D18D0641E4A463946204600F00AFA70
:1003600027B13968A14201D1C7F8008071054FF06B
:1003700002040BD54042002803DD03F0CDFE0460EB
:10038000A007BDE8F08746F48066E4E70028F8DAC5
:1003900003F0C2FE04606FF00040F2E72DE9FE4F6B
:1003A000804681EA0300C00F0C46009021F0004116
:1003B00023F00045B8EB0200A94105D24046214692
:1003C00090461C460B46024623F00040104347D09F
:1003D000270DC7F30A00C3F30A510290401A019097
:1003E00040286BDAC3F3130040F4801B0098924658
:1003F00020B10023D2EB030A63EB0B0B01985946A3
:10040000C0F140025046FFF772FF06460D465046C7
:100410005946019A00F098F910EB08006141002458
:1004200087EA115284EAE7731A4340D0009A62B314
:10043000019A012A4FEA075215DC001B61EB020109
:100440004FF0004202EA0752CDE90042001C41F59C
:10045000801132462B4600F0EEF903B000F045B8AB
:1004600040462146F9E7001B61EB0201001C41F503
:10047000801300185B412018A2F5001747EB030119
:1004800040EAD570B6196D4111E06D084FEA3606A5
:1004900045EAC0754FEA0752001B61EB0201001CE0
:1004A00041F5801149084FEA3000001951413246A8
:1004B0002B4603B000F01CB800F0AEB90098012242
:1004C00040000023D0EB020263EBE073009821466A
:1004D0004FEAE074B8EB000061EB0401E9E783F058
:1004E00000435BE781F0004158E730BCBDE8C08FB6
:1004F00030BCBDE8C04FFFF7DFBF2DE9FE4F81EAFA
:10050000030404F0004421F0004100944FF0000B7C
:1005100023F0004350EA01045ED052EA03045BD0AA
:10052000C3F30A54C1F30A552C44A4F2F3340194E2
:10053000A0FB0254C1F3130141F48011C3F3130370
:1005400043F4801301FB024400FB034E840A970A24
:1005500044EA815447EA8357A4FB076802958D0A51
:1005600005FB07854FEA932C04FB0C542705029DDD
:100570004FEA065847EA1637B5EB08056EEB070C4D
:10058000870E920E47EA811742EA8312A7FB020107
:10059000B6EB0B0164EB00042B0D43EA0C335E1841
:1005A00044EB1C50DA465146E7FB0201C5F3130445
:1005B0004FEA0B3343EA14534FEA0432019C43EAF7
:1005C0000603A4F10C040294009CCDE900B400F0F1
:1005D00032F903B000F003B800200146F9E730BC5F
:1005E000BDE8C08F2DE9F04D81EA030404F0004B13
:1005F00021F0004514464FF0000A23F0004150EA74
:10060000050220D054EA01021DD0C5F30A57024664
:10061000C5F31303C1F31300C1F30A5640F4801568
:1006200043F48013A7EB0608101BD64608F2FD38EA
:1006300073EB050002D308F1010801E092185B4159
:10064000B8F1000F03DA00200146BDE8F08D00206C
:100650004FF48011064684460EE0171B73EB050726
:1006600005D3121B63EB050306434CEA010C490852
:100670004FEA300092185B4150EA0107EDD152EA8F
:10068000030012D082EA040083EA0501084305D082
:10069000101BAB4106D20122002306E000224FF0DE
:1006A000004302E06FF0010253101AEB06004CEB1E
:1006B000085110EB0A0041EB0B01BDE8F04D00F0D2
:1006C000ABB8C1F30A52C1F3130140F2FF3341F456
:1006D00080119A4202DA00200146704740F233430B
:1006E0009A42A2F2334202DC5242FFF70FBEFFF7FA
:1006F000FEBD000030B5041E71F1000404DB4FF0B4
:100700000044404264EB0101141E73F1000405DB58
:100710001C464FF00043524263EB0403994208BF6A
:10072000904230BD064C074D06E0E06840F0010302
:1007300094E8070098471034AC42F6D3FFF72AFD3F
:10074000F04F000810500008202A06DBCB17203A93
:1007500041FA02F043EAE07306E041FA02F3D040C6
:10076000C2F1200291400843194670470048704783
:10077000EC4F00082DE9F05F82460078002715460F
:100780008B460AF10104B946302801D09DB113E02F
:1007900014F8010B0127782803D0582801D045B15F
:1007A0000AE00DB1102D07D10027102514F8010B18
:1007B00002E0082500E00A250026B0460EE005FB11
:1007C000080005FB06F1012701EB10461FFA80F82F
:1007D000B6F5803F00D3B94614F8010B294600F066
:1007E00078F80028EBDABBF1000F05D00FB1641EDA
:1007F00000E05446CBF80040B9F1000F06D003F0FA
:100800008BFC02210160C81E00F003B848EA0640D4
:10081000FAE730BCBDE8C09F10B5141E73F10004A8
:1008200008DA401C41F1000192185B411A4301D1E2
:1008300020F0010010BD2DE9F04D92469B4611B10C
:10084000B1FA81F202E0B0FA80F220329046FFF76E
:100850004EFD04460F4640EA0A0041EA0B015346AA
:100860005A46084313D0114653EA010019D0C8F183
:1008700040025046FFF74AFD05460E46504659468F
:100880004246FFF734FD084305D0012004E020462E
:100890003946BDE8F08D0020054346EAE0762C435A
:1008A00037430A986305E40AA0EB08000022FD0A1A
:1008B00044EA47540A3002D500200146E9E7010521
:1008C00010196941DDE9084500196941BDE8F04D9D
:1008D000A2E73A2800D2303820F02002412A01D382
:1008E000A2F13700884201D34FF0FF30704700007B
:1008F000014800F0ADBA0000DC03002010B5846AA6
:10090000616D11F0500F06D0616DC90625D52046E6
:1009100000F09DFA10BD606D40F4007060652068C5
:100920000168090716D502F0D7FC78B12068C068C5
:10093000800400280ADB606D20F480706065606DC3
:10094000C00403D4606D40F001006065204600F0F3
:100950007CFA10BDC0688007EBE7E16C496BBDE82D
:100960001040084710B5806A416D41F04001416573
:10097000816D41F00401816500F069FA10BD10B588
:10098000806A00F063FA10BD70B5044600688168A3
:1009900011F0010F28D18168144A114215D18168E4
:1009A000D5432940491C816000F0CAFE064616E086
:1009B000816811F0010F03D181682940491C8160D1
:1009C00000F0BEFE801B022809D9606D40F01000C7
:1009D0006065A06D40F00100A065012070BD206839
:1009E0000168C943C907E3D1002070BD3F00008002
:1009F00028B1012807D10421034801F071BF042167
:100A0000014801F041BF7047D4040020FEE7000018
:100A1000014800F0C2BC00004004002030B590F84E
:100A2000444004F01C050124AC40056C6C60046873
:100A300063608368102B036803D099600068C2600C
:100A400030BD9A600068C16030BD70477047704724
:100A500070477047704770472DE9F84F00270446EC
:100A6000009790F85000DFF8B0930D46B846012883
:100A700011D0012684F85060206802F029FC60B192
:100A8000606D40F0200060655FF0010784F85080E1
:100A9000384600F0D7B90220FBE768680C23052828
:100AA00012D8022807D0032807D0042807D0052829
:100AB00007D0062007E06B6006E0122003E0182054
:100AC00001E04FF480706860D5E90021206803EAF6
:100AD00091131844036B01F01F014FF01F0C0CFA27
:100AE00001FCC2F3846223EA0C038A4013430363CC
:100AF000206802F0EDFB8246206802F0E5FB5AEA2E
:100B000000001DD1AA682968206802F0EDFB20686A
:100B10006969C268C2F3C102520091402A69042A7D
:100B20000FD000EB82002B68026EDFF8F0C203F0FA
:100B3000F84302EA0C020B431A4342F000410166FB
:100B400072E0002102F0BAFB400320684FF0000180
:100B500072D002F0B3FB90FAA0F0B0FA80F12868EE
:100B600042036ED090FAA0F0B0FA80F0814204D136
:100B700000221146206802F0C6FB0121206802F025
:100B80009DFB400320684FF001015DD002F096FB11
:100B900090FAA0F0B0FA80F12868420359D090FA98
:100BA000A0F0B0FA80F0814204D100220121206837
:100BB00002F0A9FB0221206802F080FB40032068BC
:100BC0004FF0020148D002F079FB90FAA0F0B0FAA1
:100BD00080F12868420344D090FAA0F0B0FA80F087
:100BE000814204D100220221206802F08CFB032103
:100BF000206802F063FB400320684FF0030133D00C
:100C000002F05CFB90FAA0F0B0FA80F12868420391
:100C10002FD090FAA0F0B0FA80F0814204D10022E7
:100C20000321206802F06FFB2068816811F0010F3A
:100C300022D0ACE000E004E002F040FBC0F38461AD
:100C40008DE7C0F3846091E702F038FBC0F3846164
:100C5000A2E7C0F38460A6E702F030FBC0F3846132
:100C6000B7E7C0F38460BBE702F028FBC0F3846100
:100C7000CCE7C0F38460D0E72A7B296850F8B03F06
:100C8000C1F3120C23EA0C0302F0180C644A22FA96
:100C90000CF20A4013430360E968494577D128689C
:100CA00041031CD090FAA0F1B1FA81F1491C01F086
:100CB0001F0109294FEA403132D8002912D000BF64
:100CC00090FAA0F1B1FA81F101F1010101F01F01E7
:100CD00006FA01F609D100BFC0F3846109E0C0F350
:100CE0008461E3E7C0F38461EEE790FAA0F1B1FA22
:100CF00081F101F1010101F01F0146EA816102D198
:100D0000C0F3846003E090FAA0F0B0FA80F000F144
:100D1000010000F01F0000EB400041EA005132E00A
:100D200000290ED090FAA0F1B1FA81F101F1010190
:100D300001F01F0106FA01F606D100BFC0F384617D
:100D400006E0C0F38461F1E790FAA0F1B1FA81F115
:100D500001F1010101F01F0146EA816102D1C0F3F6
:100D6000846003E090FAA0F0B0FA80F000F1010096
:100D700000F01F002B4A00EB400002EB005041EA5C
:100D8000000141F00071AA68206802F0ADFA26481F
:100D90002A6802423FF47AAE24488168244D254BEC
:100DA00001F0E071AA421AD10D0218D422689A42C9
:100DB0007FF46CAE826841F4000122F0E0720A43D5
:100DC00082601D481D490068B0FBF1F000EB400057
:100DD000800000E0401E00900028FBD156E6184D30
:100DE000AA4207D1CD0105D422689A42F6D141F03A
:100DF00080710AE06FF00045EA42EFD14A02EDD47B
:100E000022689A42EAD141F48001826822F0E072BD
:100E10000A4382603AE6000000007F4000F0FF03D2
:100E2000FFFF0700000020FE0000088000030450C0
:100E3000000052C70000045004000020400D0300D1
:100E4000000084CB18BCBDE8E08F70477047704746
:100E50002DE9F0410446006806684568B0070ED5E4
:100E6000A8070CD5606DC00603D4606D40F4006027
:100E700060652046FFF7EBFD2168022008607007DF
:100E800001D5680703D4300724D5280722D5606D23
:100E9000C00603D4606D40F400706065206802F005
:100EA0001BFA88B12068C16889040DD4016809075C
:100EB0000AD502F00DFA50B3606D40F01000606585
:100EC000A06D40F00100A0652046FFF7BEFF21683D
:100ED0000C200860B00601D5A80603D4700645D5DD
:100EE000680643D5606DC00603D4606D40F40050C1
:100EF00060652068C16C11F0C00F19D05FF0000769
:100F000002F0EAF921680246C868C7B912E0206811
:100F1000416821F00C014160606D20F480706065D3
:100F2000606DC004D0D4606D40F001006065CBE717
:100F30000127E5E7830113D492B1820410D40A6833
:100F400052060DD580020BD4084602F0BDF9E8B375
:100F5000606D40F010006065A06D40F00100A0657C
:100F60002046FFF775FD21686020086030060BD52C
:100F7000280609D5606D40F480306065204600F099
:100F800039F9216880200860F0050CD5E8050AD5FC
:100F9000606D40F4003060652046FFF75BFD21681E
:100FA0004FF480700860B0050CD5A8050AD5606DB7
:100FB00040F4802060652046FFF74DFD21684FF426
:100FC00000700860F00617D5E80600E029E013D5A8
:100FD000606B18B12068C068C0070AD0606D40F42B
:100FE00080606065A06D40F00200A0652046FFF7BC
:100FF0002EFF216810200860700523D5680521D5D3
:10100000606D40F480406065A06D40F00800A06510
:1010100021684FF4806008602046BDE8F041FFF78A
:1010200018BD2068416821F060014160606D20F4C6
:1010300080506065606DC00592D4606D40F0010025
:1010400060658DE7BDE8F081F8B54FF0000504005C
:101050002E46009502D0606D10B107E00120F8BD6A
:10106000204600F0C9F8A66584F8506020688168C1
:10107000C1F3407119B18168564A114081602068FE
:101080008168C1F3007179B98168534A114041F018
:1010900080518160514852490068B0FBF1F000E096
:1010A000401E00900028FBD120688168C1F30071C8
:1010B00041B9616D41F010016165A16D41F001011F
:1010C000A165012502F004F9616DC90600D430B1B3
:1010D000606D40F01000606501252846F8BD606D28
:1010E00020F4807040F0020060652068806810F095
:1010F000010F0BD13B48806810F0010F06D13A4830
:101100006168826822F47C120A438260E168606B45
:10111000627E0843A16841EA4231084394F82010F6
:1011200040EA0140012904D1A18C304A02EB41413F
:101130000843A16A29B101F47071E26A014342EAED
:1011400001002168CA682A4B1A400243CA6020681D
:1011500002F0BEF80646206802F0B6F8304315D11A
:10116000207E94F83010800340EA41022068C16874
:1011700044F2020399431143C16094F838000128F6
:101180000CD02068016921F001010161206901286A
:101190002068016B21F00F0111D013E0D4E90F0199
:1011A0000843D4E911121143084321680A6940F247
:1011B000FC739A43104340F001000861E6E7E269DE
:1011C000521E11430163606D20F0020040F00100E7
:1011D000606582E7C0FFFF5FC0FFFF7F0400002063
:1011E000400D030000000450000304500000FEFF07
:1011F00007C0F0FF7047000070B586B006461421A6
:101200006846FFF71AF82049306888423AD11F49EA
:10121000C86C40F40050C864C86C00F400500590DD
:10122000C86C40F00100C864C86C002500F00100E3
:101230000590502000900B20CDE9010569464FF044
:10124000904000F0B1F9134C1148C4E9000580202A
:10125000A560C4E9035040006061C000A061202087
:10126000C4E90705204600F0F5F808B1FFF7EEFBEA
:10127000F464002211461220A66200F05FFC1220E6
:1012800000F04EFC06B070BD00000450001002409B
:10129000080002404004002070B5044615460E4682
:1012A000006802F015F8E0BB94F85000012842D025
:1012B000012084F850002046FFF766FB002110B1A2
:1012C00084F8501070BD606D40F60162904340F4A8
:1012D00080706065606DC00404D5A06D20F00600CC
:1012E000A06500E0A165E26C1448D062E26C14488D
:1012F0001063E26C1348506322681C20106084F86D
:1013000050102068416841F0100141602068C168B8
:1013100041F00101C16021682B4632464031E06C4A
:1013200000E008E000F0F6F821688A68064B1A40F1
:10133000121D8A6070BD022070BD0000FD0800080B
:101340007F09000865090008C0FFFF7F10B590F80D
:1013500025100024022903D00421C16301241AE0CE
:1013600001680A6822F00E020A6001680A6822F029
:1013700001020A6090F84410036C01F01C02012184
:1013800001FA02F25A6080F82510002180F824103A
:10139000816B01B18847204610BDF0B4016C0C6828
:1013A00001680D6890F8442002F01C06042202FA3D
:1013B00006F3234211D06B070FD50B689B0603D4AD
:1013C0000B6823F004030B6090F8441001F01C013B
:1013D0008A40016C4A60016B1DE0022303FA06F7A4
:1013E00027424FF0000C4FF0010218D0AF0716D57E
:1013F0000C68A40605D40C6824F00A040C6080F87C
:10140000252090F8441001F01C018B40016C4B60CA
:1014100080F824C0C16A00291AD0F0BC084708230C
:10142000B340234214D02B0712D50B6823F00E03D0
:101430000B6090F84410036C01F01C0102FA01F1FA
:101440005960C26380F8252080F824C0416BE2E730
:10145000F0BC704770B568B12B4C036814212B4A5F
:10146000A34209D22A4C1C44B4FBF1F18900C0E923
:1014700010210BE0012070BD234C64421C44B4FBDE
:10148000F1F189004164204908390164022180F8A2
:1014900025101C6847F6F0718C43D0E902152943EA
:1014A000D0E904563543294385692943C569294351
:1014B000056A2943214319608168B1F5804F19D02D
:1014C000036C0F21934202D152F8A83F02E00E4A6A
:1014D000A032136890F8444004F01C04A1408B43F0
:1014E000136090F84430416803F01C03994013687E
:1014F000194311600021C163012280F8252080F882
:101500002410084670BD000008040240000002409C
:10151000F8FFFDBF70B5044690F8240000250128AF
:101520000CD0012084F8240094F825600020012EBE
:1015300006D084F824000225284670BD022070BD24
:10154000022684F82560E0632068066826F001061C
:1015500006602046FFF762FA206B002820680168C9
:1015600002D041F00E0106E021F004010160206884
:10157000016841F00A0101602068016841F0010141
:101580000160D9E770B5044600F0DAF80546601C42
:1015900002D004484068044400F0D2F8401BA04246
:1015A000FAD370BD080000202DE9F84FDFF864B1D0
:1015B00000234FF0010C4FF0030A4FF00F090BF11D
:1015C000040EA0E00CFA03F6324072D04C68022CF4
:1015D00001D0122C0ED1DC0800EB8408D8F8204092
:1015E0005D07EF0E09FA07F5AC430D69BD402543D1
:1015F000C8F8205007685D0091F804800AFA05F4E5
:1016000008F00308A74308FA05F848EA0708C0F8F5
:1016100000804F68012F05D0022F03D0112F01D079
:10162000122F11D18768D1F80C80A74308FA05F86A
:1016300048EA0708C0F808804768B7430E79C6F340
:1016400000169E403E434660C668A6438C68AC4088
:101650003443C4604C68E40054D52F4C256E45F0EB
:1016600001052566246E23F0030504F001040094AF
:101670002A4C2E19B4689D072F0F09FA07F5AC43C1
:10168000B0F1904F04D0264DA84203D1012512E0BD
:10169000002510E0234DA84201D102250BE0224D88
:1016A000A84201D1032506E0204DA84202D104251D
:1016B00001E027E00725BD402543B560DBF8004089
:1016C0005D464E689443F60300D514432C60DEF863
:1016D000004075464E689443B60300D514432C6011
:1016E0000C4D08352C684E689443F60200D514431F
:1016F0002C60084D0C352C684E689443B60200D51A
:1017000014432C605B1C0A6832FA03F47FF45AAF6E
:1017100000F00EB80004014000100240000001403B
:101720000004004800080048000C00480010004871
:1017300018BCBDE8E08F0AB18161704781627047D3
:1017400001488068704700000800002090F84120A0
:10175000202A24D190F84020012A20D0012280F8AC
:101760004020242280F841200268136823F00103FE
:1017700013600268136823F48053136002681368CF
:101780000B43136001680A6842F001020A602021DD
:1017900080F84110002180F8401008467047022070
:1017A000704790F84120202A22D190F84020012A49
:1017B0001ED0012280F84020242280F841200268B7
:1017C000136823F0010313600268136823F4706345
:1017D00043EA0121116001680A6842F001020A60CF
:1017E000202180F84110002180F840100846704701
:1017F0000220704770B5040004D094F84100002521
:1018000010B106E0012070BD84F84050204600F081
:1018100003F9242084F841002068016821F00101C7
:1018200001606068216820F070600861206881684C
:1018300021F400418160E0680128A06807D040F4ED
:10184000044021688860E068022803D006E040F484
:101850000040F6E721684FF4006048602068416866
:10186000114A114341602068C16821F40041C16000
:10187000D4E904010843A16940EA01202168C86055
:10188000D4E907010843216808602068016841F035
:10189000010101606564202084F84100256384F81B
:1018A0004250002070BD0000008000022DE9FF4F73
:1018B00083B00446DDE9108790F84100DDF84890D8
:1018C0009A469346202874D15FEA080014D09FB14D
:1018D00094F8400001286CD0012084F84000FFF704
:1018E0002FFF0646012200901923D103204601F064
:1018F000FFFA002871D103E04FF4007060646CE0DF
:10190000222084F84100402084F8420000256564CC
:10191000C4F8248067856563CDE9009653465A462E
:101920002046049901F09CFA10B184F8405054E02C
:10193000618D3548FF274FF080784FF0007AFF29FE
:1019400004D927853A464346009005E0618D2185FC
:10195000009094F8282053462046049901F0B2FAEA
:101960004B46002204212046009601F0C1FAA0BB9C
:101970002068406A616A0870606A401C6062208D5D
:10198000401E81B22185608D401E6085608DD8B17A
:10199000D1B94B46002280212046009601F0A8FADA
:1019A000D8B9608DFF2805D927853A46434600956A
:1019B00006E026E0608D2085009594F828205346A7
:1019C0002046049901F07EFA608D0028C8D1324685
:1019D0004946204601F0B8FA18B1012007B000F0DE
:1019E00017B821682020C86121684A68074B1A404F
:1019F0004A6084F8410084F8425084F84050002046
:101A0000ECE70220EAE700000024008000E800FE86
:101A100030BCBDE8C08F000010B586B0044614216C
:101A20006846FEF70AFC1349206888421FD1124C11
:101A3000E06C40F00200E064E06C694600F00200F7
:101A400005904FF4C04000901220019001200290B8
:101A500003200390042004900848FFF7A5FDA06D23
:101A600040F48000A065A06D00F48000059006B0F1
:101A700010BD000000580040001002400004004863
:101A80000248816842681144816070470800002064
:101A900010B50024032000F071F8002000F008F8D1
:101AA00008B1012401E000F025F8204610BD000037
:101AB00070B50E4E05460024706898B14FF47A71E7
:101AC000B1FBF0F00A490968B1FBF0F000F0B4FD99
:101AD00040B9102D06D200222946501E00F02EF8E3
:101AE000356000E00124204670BD000008000020A1
:101AF00004000020094808B5016E41F001010166AB
:101B0000016E01F001010091816D41F0805181650C
:101B1000806D00F08050009008BD00000010024071
:101B2000002809DB00F01F020121914040098000DC
:101B300000F1E020C0F8001170470000F0B40E4B37
:101B40001B680C46C3F30223C3F10705042D00D91B
:101B50000425191D072901D2002300E0DB1E012600
:101B600006FA05F1491E214099409E40761E164016
:101B70003143F0BC02F0C0BA0CED00E0064900F0C1
:101B8000070208684FF6FF03184040EA0220034AA4
:101B900010430860704700000CED00E00000FA05FB
:101BA0001649B0F5007F0868C0F3412009D002282B
:101BB00005D0086820F4C06040F480600860002010
:101BC00070470128FBD0086820F4C06040F4007022
:101BD00008600B483222006850430A4AB0FBF2F01A
:101BE000401C00E0401E4A69520501D50028F9D189
:101BF00048694005E3D503207047000000700040AD
:101C00000400002040420F000248006800F4C06059
:101C100070470000007000402DE9F84F044600278F
:101C20000088B54D3E46000515D5606C60B1B0F535
:101C3000000F04D0B0F5400F2BD001270AE0E86870
:101C400040F48030E86024E00021201D01F0A0FC79
:101C500007001ED03E46206880033AD5A86D4FF09D
:101C60000008C00009D4A86D40F08050A865A86D98
:101C70004FF0010800F080500090DFF880A2DAF801
:101C8000001041F48071CAF80010FFF759FD814639
:101C900010E0D5F88800616C20F440000843C5F8D6
:101CA0008800D8E7FFF74CFDA0EB0900022801D916
:101CB000032705E0DAF80000C005F3D5002F7DD03A
:101CC0004FEA0706B8F1000F03D0A86D20F080504E
:101CD000A8652078C00707D0D5F88800216A20F0D1
:101CE00003000843C5F888002078800707D5D5F899
:101CF0008800616A20F00C000843C5F8880020784D
:101D0000400707D5D5F88800A16A20F030000843C5
:101D1000C5F888002078800607D5D5F88800E16AE4
:101D200020F440600843C5F888002088800507D566
:101D3000D5F88800E16B20F440200843C5F88800FE
:101D40002088400507D5D5F88800216C20F4401084
:101D50000843C5F888002078400607D5D5F88800E4
:101D6000216B20F440500843C5F888002078000615
:101D700007D5D5F88800616B20F440400843C5F8CA
:101D800088002088C00507D5D5F88800A16B20F40D
:101D900040300843C5F8880020884FF00067800471
:101DA0004FF0806850D5D5F88800A16C20F04060D5
:101DB0000843C5F88800A06CB84200E005E03BD1BC
:101DC000E86840F48010E8603EE0D5F8900010F438
:101DD000407014D0E16D814211D0D5F89000D5F853
:101DE000901020F4407041F48031C5F89010D5F87F
:101DF000901021F48031C5F89010C5F89000C0070C
:101E000011D0FFF79DFC074641F2883907E000BF7B
:101E1000FFF796FCC11B494501D9032652E7D5F8C7
:101E200090008007F4D5D5F89000E16D20F4407063
:101E30000843C5F8900045E7404505D10121201D24
:101E400001F0A6FB00B106462068000317D5D5F8BF
:101E50008800E16C20F040600843C5F88800E06C21
:101E6000B84204D1E86840F48010E86007E04045DB
:101E700005D10121201D01F08BFB00B10646206831
:101E8000400317D5D5F88800216D20F04060084345
:101E9000C5F88800206DB84204D1E86840F480108D
:101EA000E86007E0404505D10121201D01F070FBED
:101EB00000B106462088400411D5D5F88800616D30
:101EC00020F040500843C5F88800606DB0F1805F95
:101ED00005D10221201D01F05BFB00B106462088E0
:101EE000000406D555F8880FA16D20F08040084306
:101EF0002860304600F004B8001002400070004036
:101F000018BCBDE8E08F00002DE9F0470F46050042
:101F100058D0404E306800F00700B84209D230680F
:101F200020F0070038433060306800F00700B84206
:101F300048D12878384CC0072CD06868032811D0C5
:101F4000022812D0216898B1490500293ADAA1681F
:101F500021F003010143A160FFF7F2FB804641F24B
:101F6000883910E021688901EFE721688903ECE7EF
:101F70008907EAE7FFF7E4FBA0EB0801494502D92E
:101F80000320BDE8F087A068696800F00C00B0EBA2
:101F9000810FEFD12878800705D5A068A96820F0C7
:101FA000F0000843A060306800F00700B8420BD989
:101FB000306820F0070038433060306800F00700D8
:101FC000B84201D00120DCE72878400705D5A06899
:101FD000E96820F4E0600843A0602878000706D58F
:101FE000A068296920F4605040EAC100A06000F0B8
:101FF0003FF8A168094AC1F30311515C01F01F01C8
:10200000C8400749086007480068BDE8F047FFF787
:102010004FBD00000020024000100240204F000889
:10202000040000200800002005480649006889686F
:10203000054AC1F30221515C01F01F01C8407047FD
:102040000400002000100240604F000805480649C7
:1020500000688968054AC1F3C221515C01F01F0183
:10206000C84070470400002000100240604F000884
:1020700070B52549002318468A68CC6812F00C0216
:1020800004F00306214C4FEA640509D00C2A05D060
:10209000042A32D0082A00D1284670BD012E10D162
:1020A0000B681B0704D4D1F89430C3F3032302E078
:1020B0000B68C3F30313164E56F82330DAB10C2A1B
:1020C000EBD1C86800F00300022818D0032818D00C
:1020D0001846CA68CB68C2F30212C3F3062343430F
:1020E000521CB3FBF2F2C868C0F34160401C4000D0
:1020F000B2FBF0F070BD184670BD204670BD2046A2
:10210000E7E72846E5E70000001002400024F4005D
:10211000304F00082DE9F84304006ED0FD4DA8684B
:1021200000F00C06E86800F003072078C00663D5CD
:1021300076B10C2E01D1012F0AD0A06900282868A1
:1021400078D040F001002860FFF7FAFA80465BE0A3
:102150002868800702D5A0690028DED0216A286897
:10216000000703D5286800F0F00004E0D5F89400DB
:10217000F02202EA1010814216D9084601F09EFAB8
:1021800000283AD1286840F0080028602868216AB1
:1021900020F0F000084328606868E16920F47F407F
:1021A00040EA0120686015E0286840F008002860D7
:1021B0002868216A20F0F000084328606868E16917
:1021C00020F47F4040EA01206860206A01F076FA3E
:1021D0000028D6D1FFF74CFFA968CF4AC1F30311FD
:1021E000515C01F01F01C840CC490860CC48006830
:1021F000FFF75EFC00287DD12DE0C9E0FFF7A0FAD3
:10220000A0EB0800022876D828688007F6D5286851
:1022100040F0080028602868216A20F0F000084398
:1022200028606868E16920F47F4040EA0120686026
:1022300011E0FFE720F001002860FFF781FA8046F7
:1022400006E000BFFFF77CFAA0EB08000228DAD80E
:1022500028688007F6D42078C00740D0082E18D010
:102260000C2E01D1032F14D06068B0F5803F17D039
:10227000B0F5A02F286817D020F480302860286897
:1022800020F4802028606068E0B1FFF759FA8046AA
:1022900014E02868800322D56068002878D01EE00A
:1022A000286840F48030EDE740F480202860F7E7AC
:1022B000FFF746FAA0EB08006428A4D8286880033A
:1022C000F6D50CE0FFF73CFA804605E0FFF738FA58
:1022D000A0EB0800642896D828688003F6D42078FC
:1022E00080073BD5042E11D00C2E01D1022F0DD02A
:1022F000E06801E064E1B8E0002828681ED040F4FE
:1023000080702860FFF71CFA07460CE0286840053B
:102310000CD5E0680028C1D008E000BFFFF710FA34
:10232000C01B022893D828684005F7D56868217C2F
:1023300020F0F85040EA016068600FE020F48070FF
:102340002860FFF7FDF9074605E000BFFFF7F8F941
:10235000C01B0228B1D828684005F7D420780007B0
:1023600029D560690028D5F8940012D040F001000A
:10237000C5F89400FFF7E4F9074604E0FFF7E0F939
:10238000C01B022871D8D5F894008007F6D512E05A
:102390004CE120F00100C5F89400FFF7D1F90746A1
:1023A00005E000BFFFF7CCF9C01B02285DD8D5F8C7
:1023B00094008007F6D42078400766D5A86D0027E2
:1023C000C00008D4A86D40F08050A865A86D012712
:1023D00000F08050009053480168C90512D401688C
:1023E000814641F480710160FFF7AAF9804605E05B
:1023F000FFF7A6F9A0EB0800022836D8D9F80000AC
:10240000C005F5D5A068012816D00528D5F890009C
:1024100017D020F00100C5F89000D5F8900020F00A
:10242000040000BFC5F89000A06841F28839C0B12F
:10243000FFF786F980460FE0D5F8900040F00100E4
:10244000F0E740F00400C5F89000F5E7FFF778F9F1
:10245000A0EB0801494508D8D5F890008007F5D5CC
:102460000EE0FFF76DF9804606E07CE0FFF768F9C3
:10247000A0EB0801494576D8D5F890008007F5D43F
:102480001FB1A86D20F08050A8652078800628D55F
:10249000606A0028D5F8980012D040F00100C5F815
:1024A0009800FFF74DF9074605E000BFFFF748F930
:1024B000C01B022857D8D5F898008007F6D510E041
:1024C00020F00100C5F89800FFF73AF9074604E04C
:1024D000FFF736F9C01B022871D8D5F8980080079D
:1024E000F6D4A06AF0B30C2E71D00228286820F030
:1024F000807028601AD02868000103D4E86820F0B2
:102500000300E860E86808490840E860FFF718F948
:10251000044657E000100240204F0008040000204D
:102520000800002000700040FFFFEEFEFFF708F9F2
:10253000064604E0FFF704F9801B02283FD828680C
:102540008001F7D4F4E90B016FF00F0202EB0111E7
:102550000843218A4908520402EB4151A26841EA2A
:10256000022101E064E02AE00843217D4FF07E4231
:10257000490802EB41610843217B40EAC160E968F8
:102580002C4A11400843E860286840F080702860B9
:10259000E86840F08070E860FFF7D2F8044604E095
:1025A000FFF7CEF8001B022809D828688001F7D56C
:1025B0003EE000BFFFF7C4F8001B022802D9032049
:1025C000BDE8F88328688001F4D431E0FFE70128F2
:1025D000F6D0E868E26A00F00301914226D1216B4F
:1025E00000F070020901103991421FD1626B00F4B2
:1025F000FE41B1EB022F19D194F8382000F0784158
:10260000B1EBC26F12D1A18F00F4C0024908490595
:10261000A1F50011914209D194F8401000F0C0607A
:1026200049084906A1F10071814201D00120C7E7A4
:102630000020C5E78C809D0110B5401EB0F1807F61
:1026400001D3012010BD4FF0E02460610F2160171D
:1026500001F052FD0020A06107202061002010BD84
:1026600070B590F83C20012A21D0012480F83C402C
:10267000022280F83D2003685A689D680D4EB342DF
:1026800003D122F470064A68324322F070060A68C9
:102690008968324325F0800529435A6002689160B9
:1026A00080F83D40002180F83C10084670BD0220B3
:1026B00070BD0000002C014010B586B00446142106
:1026C0006846FDF7BAFD2068B0F1804F15D10C487F
:1026D000C16C41F00101C164C06C694600F00100A9
:1026E00005900220009001900020029003900120AC
:1026F00004904FF09040FEF757FF06B010BD000069
:102700000010024070B5044690F83C000D460128C8
:102710000ED0012684F83C60022084F83D000C2A8B
:1027200045D007DC5AB1042A1BD0082A78D12CE006
:10273000022070BD102A4ED0142A71D15DE02068AD
:1027400001F0ACF82068816941F0080181612068DE
:10275000816921F004018161206881692A6911433E
:1027600011E0206801F0D6F82068816941F4006129
:1027700081612068816921F48061816120688169BB
:102780002A6941EA022181614AE0206801F0FEF8ED
:102790002068C16941F00801C1612068C16921F068
:1027A0000401C1612068C1692A69114311E02068F0
:1027B00001F026F92068C16941F40061C161206817
:1027C000C16921F48061C1612068C1692A6941EA57
:1027D0000221C16124E0206801F042F92068416DC6
:1027E00041F0080141652068416D21F00401416517
:1027F0002068416D2A69114311E0206801F05EF9FB
:102800002068416D41F4006141652068416D21F40B
:10281000806141652068416D2A6941EA0221416574
:1028200084F83D60002084F83C0070BD10B50400C1
:1028300003D094F83D0010B107E0012010BD002046
:1028400084F83C00204600F00DF8022084F83D009A
:10285000211D206800F0DEFF012084F83D000020EB
:1028600010BD000008B50068B0F1804F08D10548E0
:10287000816D41F001018165806D00F001000090E3
:1028800008BD00000010024010B504460068012297
:1028900000F0F6FF0E482168814205D00D488142C4
:1028A00002D00D48814203D1486C40F40040486496
:1028B00020688168094A1140062906D0B1F5803F99
:1028C00003D0016841F001010160002010BD00004B
:1028D000002C01400040014000440140070001007D
:1028E00010B504460068002200F0CAFF134841F208
:1028F000111221689310814205D01148814202D003
:102900001048814209D1086A104206D1086A18426B
:1029100003D1486C20F4004048642068016A1142E9
:1029200006D1016A194203D1016821F00101016059
:10293000012084F83D00002010BD0000002C014063
:102940000040014000440140704770472DE9F041CC
:1029500002680446D0691168936810F00F0F4FF0B9
:1029600000055BD003F0010601F49077374369D08E
:10297000C70707D0CF0505D501271762E26F42F0E0
:102980000102E267820708D5DA0706D0276802222B
:102990003A62E26F42F00402E267420708D5DA07C2
:1029A00006D0236804221A62E26F42F00202E26754
:1029B00002070AD501F02002324306D0236808221C
:1029C0001A62E26F42F00802E267E26F002A32D038
:1029D000800605D5880603D5216E09B120468847B3
:1029E000E06F21688968490601D4000725D5204693
:1029F00001F036F920688168490619D5816821F00F
:102A000040018160E06E98B120498163E06EFEF77D
:102A10009DFC00280FD0E06E816B06E0860611D584
:102A20008E060FD5216E1EE02046BDE8F041084716
:102A30002046FFF78AFFBDE8F0812046FFF785FFBB
:102A4000E567F8E7C60209D55B0207D54FF48010A9
:102A500010622046BDE8F041FFF776BF030605D5BA
:102A60000B0603D5616E0029DED1E4E74006E2D50E
:102A70004806E0D51168204621F040011160202170
:102A80006167656600F096F9D5E70000393C0008FB
:102A900010B5040002D0606F10B107E0012010BD36
:102AA000002084F87000204600F026F8242060679B
:102AB0002068016821F001010160204601F03AF927
:102AC0000128ECD0606A10B1204601F025F820689A
:102AD000416821F4904141602068816821F02A0119
:102AE00081602068016841F0010101602046BDE875
:102AF000104001F075B8000070B586B0044614218E
:102B00006846FDF79AFB294E2568002128480222D5
:102B100003230724B54221D1056E45F4804505669F
:102B2000056E05F480450595C56C45F00105C56445
:102B3000C06C02AD00F00100059085E81A00580253
:102B4000CDE9000269464FF09040FEF72DFD0022CE
:102B500003212520FEF7F2FF252023E0154EB54284
:102B600022D1856D45F480258565856D05F4802528
:102B70000595C56C45F00205C564C06C02AD00F05A
:102B80000200059085E81A004FF44060CDE900028C
:102B900069460948FEF708FD002201212720FEF7BB
:102BA000CDFF2720FEF7BCFF06B070BD0038014006
:102BB00000100240004800400004004830B5836F18
:102BC000202B4BD1B1B1AAB190F87030012B45D078
:102BD000012380F870304165A0F85820A0F85A20F1
:102BE000002101661D038268FF23AA4207D1026902
:102BF00012B125E0012030BD40F2FF1226E07F2413
:102C0000E2B1B2F1805F1ED0A0F85C10C167222251
:102C100082670268936843F0010393608268AA4266
:102C200001D10269C2B10E4A026680F870100068D4
:102C3000016841F490710160002030BD026942B921
:102C4000A0F85C30E2E702691AB13F22A0F85C20EC
:102C5000DCE7A0F85C40D9E7024AE5E7022030BD96
:102C6000D93C00087F3C00080068084988420BD125
:102C700007490A784878074B0344401C48701A708B
:102C800001220548FFF79ABF704700000048004046
:102C90000000002014050020940600202DE9F843D0
:102CA0000446406F1F4616460D4620284ED1CDB132
:102CB000C6B194F87000012848D0012084F8700053
:102CC0004FF00008C4F87C8021206067FEF738FDD3
:102CD000A4F850608146A4F85260A068B0F5805F07
:102CE00003D004E00120BDE8F883206910B12E462E
:102CF000002510E000260EE08021204601F082F938
:102D0000B8B9C6B116F8010B21680885B4F85200AD
:102D1000401EA4F85200B4F852004B464FF0000297
:102D200000970028E8D14FF04001204601F06AF9F1
:102D300030B10320D7E735F8020BC0F30800E3E712
:102D40002020606784F870800020CCE70220CAE76A
:102D5000436F202B28D1B1B1AAB190F87030012B6C
:102D600022D0012380F87030C164A0F85020A0F870
:102D7000522000214166C167212242678268B2F574
:102D8000805F02D003E001207047026952B1074A18
:102D9000426680F870100068016841F080010160AF
:102DA00000207047024AF3E702207047C93F00083D
:102DB000893F00087047FEE701688A69D24392079D
:102DC00001D400228A6200688169C943C90703D01F
:102DD000816941F001018161704700002DE9F041F6
:102DE0000446006890460E468069C043C00633D44E
:102DF0000025202720688069C043800615D5701CF7
:102E0000F8D0FEF79DFCA0EB0800B04201D8002EE0
:102E1000F0D154F8440F40F0200044F804096770E2
:102E2000A57025700120BDE8F08121681020C861DF
:102E30002068C7612046FFF7BFFF54F8440B416884
:102E4000064A11404160206840F0040044F820091F
:102E50006777A5772577E5E70020E4E700E800FE3F
:102E60002DE9F84304461646DDE9089714489846CC
:102E7000DAB200900023204600F024F83A46494692
:102E8000204600F087F8B8B9F5B2B8F1010F08D0C4
:102E90002168300A88623A464946204600F07AF8AE
:102EA00050B9206885624B46002240212046009799
:102EB00000F01EF8002800D00120BDE8F8830000D3
:102EC00000200080F0B50568059C68684FF48066B6
:102ED000064FC1F3090106EA545641EA02413E4356
:102EE0001943B043214308436860F0BDFF63FF030B
:102EF0002DE9F0411D4617460E460446DDF81880C0
:102F000008E0681C06D0FEF71BFCA0EB0800A842F6
:102F10000BD855B12068806936EA000012D0002035
:102F2000B842EED00020BDE8F08154F8440F40F0E4
:102F3000200044F80409202060700020A070207058
:102F40000120F0E70120EBE770B516460D46044678
:102F50000DE0324629462046FFF740FF08B1012028
:102F600070BDFEF7EDFB801BA84207D835B1206885
:102F70008069C0438006ECD4002070BD54F8440F33
:102F800040F0200044F80409202060700020A07068
:102F90002070E4E770B516460D4604460FE0324651
:102FA00029462046FFF71AFF08B1012070BD681CB2
:102FB00005D0FEF7C5FB801BA84207D835B12068B5
:102FC0008069C0438007EAD4002070BD54F8440FE4
:102FD00040F0200044F80409202060700020A07018
:102FE0002070E2E72DE9104000F008F8411C03D002
:102FF000C0B200F0A1F8F7E710BD000006494FF09D
:10300000FF304A788B789A4205D08878034A024488
:10301000401C8870107870470000002014050020C4
:1030200030B585B005004FF000000C4603900490C9
:103030003BD0CCB39FED1E0A4FF6FF7285ED000A20
:1030400084ED000A062103A88DE80700022342F25E
:103050000B4289211748FEF729FCBDF80C00DFED73
:10306000160A40BA00EE100AB8EE400A20EE201A06
:10307000DFED120A81EE200A9FED111A30EE410AAF
:103080009FED101A85ED000ABDF80F0040BA00EE62
:10309000100A0020B8EE400A20EE010A80EE201A45
:1030A00084ED001A05B030BDFFE74FF0FF30F9E7BF
:1030B000000000008804002000002F4300FF7F472D
:1030C000000034420000C8422DE9FC4700278A4630
:1030D00081463E4600973D463C46B846019720E073
:1030E00019F805000D2804D03A280BD02C280CD054
:1030F00001E0012E1AD017B10DF80400641C012E56
:103100000BD00DE0012700240AE0002701263C46F1
:103110006846FDF7B6F8804602E00AF80400641C31
:103120006D1C4846FDF7A6F8A842D9D8404600F0E5
:1031300000B80CBCBDE8F08701B5FF230122694649
:103140000148FFF7ABFD08BD140600202DE9F74F3D
:1031500086B040A0049041A0039042A000250290B8
:1031600042A00F460190096800913D600699681ED3
:103170009246A846AB46A9462E4600291FD0002FEE
:103180001DD000BFFFF73AFF0446401C54D0E0B208
:10319000FFF7D2FF0098864206D006988455761C29
:1031A0003E60069900208855042D0CD00498405D9F
:1031B000A04207D16D1CEDB2042D04D1012009B04D
:1031C00000F05CB80025B8F1070F0FD0039810F895
:1031D0000800A04208D108F1010000F0FF08B8F192
:1031E000070F03D10220EAE74FF00008B9F10E0FF4
:1031F0000FD0019810F80900A04208D109F1010090
:1032000000F0FF09B9F10E0F03D10320D7E74FF00B
:103210000009BBF1060F0BD0029810F80B00A0427A
:1032200003D10BF10100C0B200E0002083460BE0A7
:103230000A2C09D10420C2E7BAF1000F07D0AAF185
:10324000010A0120FEF79EF9BAF1000F9AD1002081
:10325000B5E700004F4B0D0A000000004552524FE9
:10326000520D0A002B4E4E4D493A00002B514C573F
:10327000455654494E443A330D0A000030BCBDE86F
:10328000C08F000010B50446FCF7F4FF82B221465F
:103290000548FFF75DFD010004D0BDE8104003A024
:1032A00000F0EEBE10BD000094060020756172743F
:1032B00033206572723A25640A00000000EB810039
:1032C000006E00F0F84070478068C0F3C00070479F
:1032D0008068C0F380007047C06810F4406F01D070
:1032E0000020704701207047042303EAD15310B532
:1032F00018444369C1F3045107248C40A3438A4016
:103300001343436110BD00EB8100016E21F00041C9
:10331000114301667047000030B587B01821684638
:10332000FCF78BFF1E481D490024C0E9001404254A
:10333000456101218460C0E903410476417602229F
:10334000C26180F820408462C46280F83010446317
:1033500080F83840FDF778FE08B1FDF777FB11489B
:1033600000900620CDE901047F200594CDE90305F6
:1033700069460B48FDF770FB08B1FDF767FB0A488B
:1033800000900C20019069460548FDF765FB002878
:1033900001D0FDF75BFB07B030BD0000000004501A
:1033A000DC0300200008302E0002B025094808B5D3
:1033B000816C41F001018164806C002200F0010009
:1033C000009011460B20FEF7B9FBBDE808400B202A
:1033D000FEF7A6BB0010024010B586B01421684667
:1033E000FCF72BFF1548C16C41F08001C164C16C32
:1033F00001F080010591C16C41F00101C164C16C13
:1034000001F001010591C16C41F00201C164C06C81
:103410000B4C00F0020005900122E0212046FEF74F
:103420008AF9E020009001200021CDE901010391FB
:1034300069462046FEF7B8F806B010BD00100240FD
:1034400000040048134810B5114901601249416059
:1034500000210122C0E90212016141618161C16163
:103460000162FEF7C7F908B1FDF7F0FA002109483B
:10347000FEF76CF908B1FDF7E9FA00210548FEF7FF
:1034800090F9002803D0BDE81040FDF7DFBA10BD69
:103490000058004088040020BB7C700010B58AB042
:1034A0000024079408941C2168460994FCF7C5FE83
:1034B00016484FF0804101603F21C0E9011440F2FD
:1034C0007111C0E903148461FFF7B0F908B1FDF789
:1034D000BDFA079407A90D480994FFF7C1F808B190
:1034E000FDF7B4FA60200090B920CDE90104042270
:1034F000694606480494FFF705F908B1FDF7A6FAF6
:103500000248FFF7D9F80AB010BD0000D40400202B
:103510000D4810B50B4901604FF4E13141600021C5
:1035200081600C22C160C0E904128161C161016245
:103530004162FFF7ADFA002803D0BDE81040FDF767
:1035400085BA10BD00380140140600200D4810B5A2
:103550000B4901604FF416514160002181600C223B
:10356000C160C0E904128161C16101624162FFF77B
:103570008FFA002803D0BDE81040FDF767BA10BDF0
:103580000048004094060020FEE7704770470000A6
:103590002DE9F041444C05468846E0680026810745
:1035A00028680DD0E16801F00301814216D1A8B16D
:1035B000E0686968C0F30210401C88420ED120E028
:1035C000012804D0022805D0032807D108E021688B
:1035D000890701E021684905002907DB01265FE032
:1035E0002168890302D421684903F5E7E1686A6824
:1035F0006FF00F0321F0730103EB0212114301433B
:10360000E160206820F080602060FEF799F80746AE
:1036100005E000BFFEF794F8C01B022837D82068E9
:103620000001F7D4B8F1000F18D0B8F1010F1DD088
:10363000287D4FF07E41400801EB4060A96840EAD8
:1036400001202169194A114008432061206840F097
:1036500080602060FEF774F807461AE0A868297BAE
:10366000000240EAC1602169114AECE7288A114949
:10367000400801EB4050A96840EA012021690E4A48
:10368000E1E700BFFEF75CF8C01B022801D9032662
:1036900006E020680001F5D52069A969084320618A
:1036A0003046BDE8F081000000100240FF80FFF9C5
:1036B000FF80FF070000E0FFFF809FFFF8B51C4D73
:1036C00006460024A86DC00002D5FEF79DFA0DE065
:1036D000A86D40F08050A865A86D00F08050009063
:1036E000FEF792FAA96D21F08051A965B0F5007F2F
:1036F00004D0802E07D94FF003040AE0802E08D9A9
:10370000A02E01D804E001D1022402E0702E00D1E5
:1037100001240848016821F0070121430160006885
:1037200000F00700A04201D00120F8BD0020F8BD44
:1037300000100240002002407047FEF7A1B92DE9B9
:10374000F043AFB0442118A8FCF777FD142129A855
:10375000FCF773FD60216846FCF76FFD012630041D
:10376000CDE9186002250327CDE922574FF008085C
:103770004FF00709CDE92695CDE9246818A82895CA
:10378000FEF7C8FC00240F20CDE92A7429902C9460
:10379000012129A82D94FEF7B7FB44F285000A9475
:1037A0000090E80615900011CDE906500894CDE987
:1037B00004950D94CDF80C80CDE901766846FEF7AE
:1037C0002BFA2802FEF7ECF92FB0BDE8F0830000D9
:1037D0000D48016841F4700101600C48016841F036
:1037E00001010160002181600268094B1A400260FA
:1037F0008214C260026822F4802202608161024960
:10380000C00380390860704788ED00E00010024076
:10381000FFFFF6EA70B50268164B4FF080469842FB
:1038200001D0B04203D122F070044A682243124C06
:10383000124D984205D0B04203D0A04201D0A84218
:1038400003D122F44076CA6832434E6922F08002E6
:10385000324302608A68C2620A688262984203D078
:10386000A04201D0A84201D109690163012141614F
:1038700070BD0000002C01400040014000440140A8
:1038800010B501F01F030121046A99408C430462C2
:10389000016A9A401143016210BD0000F0B5026A4E
:1038A00022F001020262056A43688269154C25F024
:1038B000020522400C6822F0030214438A68134E6A
:1038C0002A43114D124FA84203D0B04201D0B84252
:1038D00006D122F0080CCA6842EA0C0222F0040267
:1038E000A84203D0B04201D0B84205D14D6923F4BB
:1038F00040731D438B692B43436084614968416376
:103900000262F0BD8FFFFEFF002C0140004001402D
:103910000044014030B5026A22F010020262046ADB
:1039200042688369154D2B400D6823F4407343EAC8
:10393000052524F020038C6843EA0413104CA042B0
:1039400007D1CC6823F0800343EA041323F040033B
:1039500005E00C4CA04202D00B4CA04207D14C69B0
:1039600022F4406242EA84028C6942EA84024260A4
:10397000856149688163036230BD0000FF8FFFFEEF
:10398000002C0140004001400044014030B5026A73
:1039900022F480720262046A4268C369144D2B40AB
:1039A0000D6823F003031D4324F400738C6843EA7D
:1039B0000423104CA04207D1CC6823F4006343EAEF
:1039C000042323F4806305E00B4CA04202D00B4C8F
:1039D000A04207D14C6922F4405242EA04128C6999
:1039E00042EA04124260C5614968C163036230BDA6
:1039F0008FFFFEFF002C01400040014000440140C9
:103A000030B5026A22F480520262046A4268C369D5
:103A10000F4D24F400542B400D6823F4407343EA07
:103A200005238D6844EA05340A4DA84205D00A4DA5
:103A3000A84202D0094DA84204D14D6922F4804227
:103A400042EA85124260C36149680164046230BD84
:103A5000FF8FFFFE002C0140004001400044014068
:103A600030B5026A22F480320262046A4268436D11
:103A70000E4D2B400D681D4324F400330C8943EA9E
:103A800004430B4CA04205D00A4CA04202D00A4C81
:103A9000A04204D14C6922F4803242EA04224260FE
:103AA000456549688165036230BD00008FFFFEFFF8
:103AB000002C0140004001400044014030B5026A42
:103AC00022F480120262046A4268436D0E4D24F4AF
:103AD00000142B400D6843EA05230D8944EA055480
:103AE0000A4DA84205D00A4DA84202D0094DA8426D
:103AF00004D14D6922F4802242EA85224260436566
:103B00004968C165046230BDFF8FFFFE002C014093
:103B1000004001400044014090F82410C90706D03D
:103B200001684A68836A22F400321A434A6090F8B6
:103B30002410890706D501684A68C36A22F48032D6
:103B40001A434A6090F82410490706D501684A686C
:103B5000036B22F480221A434A6090F8241009076C
:103B600006D501684A68436B22F400421A434A6052
:103B700090F82410C90606D501688A68836B22F480
:103B800080521A438A6090F82410890606D501688D
:103B90008A68C36B22F400521A438A6090F824109A
:103BA000490611D501684A68036C22F480121A4351
:103BB0004A60016CB1F5801F06D101684A68436C08
:103BC00022F4C0021A434A6090F82410090606D570
:103BD00001684A68806C22F4002202434A60704700
:103BE000F8B500260446C667FDF7AAFD054620681D
:103BF00000686FF07E47000708D52B4600224FF47F
:103C000000112046009700F0FDF960B920680068B7
:103C100040070AD52B4600224FF48001204600972A
:103C200000F0F0F908B10320F8BD20206067A0671C
:103C300084F870600020F8BD10B5806A0021A0F8FB
:103C40005A10A0F85210FEF780FE10BD0122024962
:103C50000248FEF7B3BF00000000002094060020D9
:103C600001680A6822F490720A6001688A6822F08A
:103C700001028A602021816700210166704710B52A
:103C8000B0F85C20836F0168222B04D0088B40F0D1
:103C90000800088310BD898C436D11401980416D67
:103CA000891C4165B0F85A10491EA0F85A10B0F8A6
:103CB0005A100029EED101680A6822F490720A6055
:103CC00001688A6822F001028A6020218167002150
:103CD0000166FEF7C9FF10BD10B5B0F85C20836F18
:103CE0000168222B04D0088B40F00800088310BD27
:103CF000898C1140426D1170416D491C4165B0F8CD
:103D00005A10491EA0F85A10B0F85A100029EED1E6
:103D100001680A6822F490720A6001688A6822F0D9
:103D200001028A602021816700210166FEF79CFF65
:103D300010BD00002DE9F041044603688168006968
:103D4000E56901436069002728430143844A1868F4
:103D5000844D28400843186020684168E36821F4D6
:103D60004051194341602168A069914201D0236A02
:103D700018438B6823F4306303438B607A4B2168CC
:103D80007A4899420DD1D0F8880010F0030006D08F
:103D9000012847D0022843D0032830D144E0012530
:103DA0002EE0734B99420BD1D0F8880010F00C0034
:103DB00034D0042836D0082832D00C281FD133E064
:103DC0006C4B99420BD1D0F8880010F0300025D010
:103DD000102827D0202823D0302810D124E0914269
:103DE0000DD1D0F8880010F4406017D0B0F5806F86
:103DF00018D0B0F5006F13D0B0F5406F14D0102577
:103E00005D4B00264FF40040914245D175B1022D23
:103E10000FD0042D0FD0082D18D10FE00025EFE7AB
:103E20000225EDE70425EBE70825E9E7FEF7FCF8B6
:103E300003E0184602E0FEF71BF9A8B3626802EB44
:103E40004201814202D8B0EB023F01D9012774E060
:103E5000DFF828815DB1022D0CD0042D13D0082D80
:103E6000F4D150082905401846F1000105E0FEF79D
:103E7000DBF80AE050084249F5E70023FCF7A2F915
:103E8000A0F5407155E0FEF7F3F86268010E0302F9
:103E9000500818187141F0E7E1694FF6EF78814258
:103EA0002ED1092DD2D200E047E0DFE805F0060967
:103EB0001F05220505052500C8E7FEF7B5F801E056
:103EC000FEF7C4F84100606801EB5001B1FBF0F06F
:103ED00080B2A0F110014145B8D84FF6F071014011
:103EE000C0F3420001432068C16026E025496068B4
:103EF000EAE7FEF7BDF8E5E74FF480316068E3E7F5
:103F0000092DA3D2DFE805F006091E0522050505E7
:103F100025009BE7FEF788F801E0FEF797F80146D9
:103F2000606801EB500100BFB1FBF0F080B2A0F17E
:103F3000100141458AD82168C86026663846666601
:103F4000BDE8F081606803EB5001EDE7FEF790F803
:103F5000E5E7616800EB5100B0FBF1F0E6E7000037
:103F600000800040F369FFEF00380140001002407C
:103F700000440040004800400024F400FFFC0F0013
:103F8000000024F40048E801416F212910D1B0F865
:103F9000521071B1C16C02680988C1F30801118522
:103FA000C16C891CC164B0F85210491EA0F85210AF
:103FB000704701680A6822F080020A6000680168A0
:103FC00041F0400101607047416F21290ED1B0F8E6
:103FD000521061B1C16C026809781185C16C491C2D
:103FE000C164B0F85210491EA0F852107047016821
:103FF0000A6822F080020A600068016841F040010E
:10400000016070472DE9F041984617460E46044678
:10401000069D08E0681C06D0FDF792FBA0EB0800A7
:10402000A8420BD855B12068C06936EA000017D005
:104030000020B842EED00020BDE8F0812068016881
:1040400021F4D07101602068816821F00101816054
:1040500020206067A067002084F870000320EBE751
:104060000120E6E70148FEF771BC000014060020BD
:104070000148FEF76BBC000094060020FEE700003C
:104080000FB4054B10B503A9044A029800F01EF9BD
:1040900010BC5DF814FB0000594A00081400002011
:1040A0000FB41CB50246002007AC00290BD0491EF6
:1040B000CDE90021054B6A462146069800F006F935
:1040C000009A002111701CBC5DF814FB014A000825
:1040D0000FB4084B10B504A902AA039800F0F6F833
:1040E000044602A9002000F096FC204610BC5DF8B2
:1040F00014FB0000174A00080907090E002804DB1A
:1041000000F1E02080F80014704700F00F0000F18B
:10411000E02080F8141D7047004870471800002008
:1041200002E008C8121F08C1002AFAD17047704780
:10413000002001E001C1121F002AFBD170470000DE
:104140002DE9FF5F82B00021DDE90430020DDDF8CA
:1041500040B0034318D044F61050A2F2FF3242435D
:104160001514119801281FD0A5EB0B00401C5FEA25
:10417000000A4FF000064E4FDFF83891B046504627
:1041800015D5CAF1000413E0119801244AA30128AF
:1041900001D16FEA0B010298119AC0E90031C0E920
:1041A000024206B000F08EB8CBF10000DFE7044613
:1041B0000021404A491842EB0450CDE9001012E0BA
:1041C000E00707D032463B4640464946FCF795F9A2
:1041D0008046894632463B4610461946FCF78DF923
:1041E00006460F466410002CEAD1DDE90401DDE942
:1041F0000023BAF1000F06DAFCF77FF942464B467E
:10420000FCF77BF905E0FCF7EDF942464B46FCF77D
:10421000E9F904460E460022284BFCF76BFA03D856
:104220004FF0FF30014607E00022254B2046314683
:10423000FCF7B4F8FCF745FA102409E0002C0ADB7F
:104240000A220023FBF7BEFF039B30321A55641E7F
:1042500050EA0102F2D1641C039AC4F11103144420
:10426000119A012A03D0012208430DD10AE0084324
:1042700004D000204FF0110B119072E7A3EB0B0557
:104280006D1E0DE05B4504DD4FF0000205F10105F8
:1042900004E003DA4FF00002A5F10105002AECD09A
:1042A00002981199C0E90231C0E9004579E70000A0
:1042B000000014400000F03F300000000000F04318
:1042C0000000E03F30BCBDE8C09F00002DE9FF4F7B
:1042D00095B09B468946064600250FE2252877D1F2
:1042E00000242746F84A0121059400E0044316F80B
:1042F000013F203B01FA03F01042F7D130782A2821
:1043000011D06FF02F033078A0F13002092A16D8AF
:10431000059A44F0020402EB820203EB42021044CD
:10432000761C0590EFE759F8042B0592002A03DA72
:10433000504244F40054059044F00204761C307856
:104340002E2816D116F8010F44F004042A280DD0A7
:104350006FF02F023078A0F13003092B09D807EB5A
:10436000870302EB4303C718761CF3E759F8047B75
:10437000761C30786C280FD006DC4C2817D06828C3
:104380000DD06A2814D104E0742810D07A280FD1F7
:104390000DE044F400140AE044F4801401E044F415
:1043A00040147278824202D104F58014761C761C87
:1043B000307866280BD013DC582877D009DC002829
:1043C00075D04528F6D04628F4D047281AD19DE16B
:1043D00018E0632835D0642879D0652812D195E19A
:1043E000702873D008DC6728F1D069286FD06E2858
:1043F0000DD06F2806D1B5E073282CD0752875D064
:10440000782874D05A46179990476D1C75E1C4F30B
:104410000250022809D003280DD0D9F80010042832
:104420000DD00D6009F1040967E1D9F80010EA1711
:10443000C1E90052F6E7D9F800100D80F2E70D70DF
:10444000F0E719F8041B8DF8001000208DF801002A
:10445000EA46012003E059F804AB4FF0FF30610752
:104460004FF0000102D40DE008F101018846B94285
:104470000FDA8045F8DB1AF808100029F4D108E0BB
:1044800008F1010188468142FADB1AF80810002978
:10449000F6D105985B46A0EB080721463846179AE7
:1044A00000F097FA284400EB080507E04DE029E109
:1044B0000DE01AF8010B5A4617999047B8F1010818
:1044C000F7D25B4621463846179A13E142E00A22AA
:1044D0000092C4F302524FF0000A022A08D059F8A1
:1044E00004CB032A4FEAEC710AD00DE029E02AE060
:1044F00009F1070121F00702F2E802C1914609E043
:104500000FFA8CFC4FEAEC71042A03D14FFA8CFCB1
:104510004FEAEC71002907DA0A460021DCF1000CB1
:1045200061EB02012D2202E0220504D52B228DF839
:104530000420012203E0E20701D02022F7E79046A1
:1045400059E00A2102E010220DE010214FF0000A8C
:1045500000910BE010224FF0000A44F004040827F9
:10456000009203E008224FF0000A0092C4F30252C6
:10457000022A05D059F804CB0021032A08D009E00B
:1045800009F1070121F00702F2E802C1914605E0B6
:104590001FFA8CFC042A01D10CF0FF0C4FF000082C
:1045A000220728D5702806D0009B83F0100353EA19
:1045B0000A0305D00EE040228DF80420012208E015
:1045C0005CEA010206D030228DF804208DF8050047
:1045D00002229046009B83F0080353EA0A030AD1A3
:1045E0005CEA010201D1620705D530228DF8042072
:1045F0004FF001087F1E582804D034A003900EA865
:1046000002900DE036A0F9E753466046009AFBF7AA
:10461000D9FD84460398825C0298401E0290027085
:104620005CEA0100F0D1029806A9081A00F1200AFC
:10463000600702D524F4803400E00127574502DDED
:10464000A7EB0A0000E0002000EB0A0100900598AB
:104650004144401A0590E00306D45B462146179A70
:10466000059800F0B6F90544002706E001A85A466F
:10467000C05D179990476D1C7F1C4745F6DBE00332
:104680000CD55B462146179A059800F0A2F905441F
:1046900004E030205A46179990476D1C0099481E37
:1046A00000900029F5DC08E0029802995A4600784B
:1046B000491C0291179990476D1CBAF10001AAF1AB
:1046C000010AF1DC65E100000928010030313233D4
:1046D000343536373839616263646566000000003E
:1046E0003031323334353637383941424344454628
:1046F0000000000000F05BF90544761C30780028CB
:104700007FF4ECAD19B0284600F04EB9620700D432
:10471000062709F1070222F0070CFCE80223E14614
:1047200003F000485FEA080C02D00FF2702C0DE095
:104730005FEA045C02D50FF2682C07E05FEAC47CF4
:1047400002D00FF2602C01E0AFF2700C4FF0FF3896
:1047500023F00043CDF850C065280CD006DC452876
:1047600009D046281DD047283DD13DE0662818D005
:1047700067287ED138E00021112F01DB112000E0F5
:10478000781CCDE9000106A90EA8FFF7D9FCDDE9E8
:104790000F010E9A03910021009207F1010A049182
:1047A0004DE04FF000400097CDE9011006A90EA89A
:1047B000FFF7C6FCDDE90F0203920E9B1199002260
:1047C000DDF80CA00093049211B9791C00EB010AEA
:1047D000B7EB0A0004D4C0F1FF3007F1010A0490DE
:1047E000AAEB0700019044E0012F00DA0127002125
:1047F000112F01DD112000E03846CDE9000106A9A6
:104800000EA8FFF79DFCDDE90F010E9A0391002130
:1048100004910092BA4621070CD40399514500DA5D
:104820008A46BAF1010F05DD009AAAF10101515C37
:10483000302908D0B84202DA10F1040F06DA01215B
:10484000CDE9011015E0AAF10101E9E7002805DC36
:10485000049901440491AAEB000102E0411C514576
:1048600000DD8A460499401A401C01904FF0004038
:104870000290200704D40198504501DBCDF8048054
:1048800000208DF84F0002980DF14F07B0F1004F56
:1048900025D02B200E9002984FF0020800280CDA49
:1048A000404202902D200E9007E00A210298FBF76B
:1048B00008FD3031029007F8011DB8F10001A8F1A0
:1048C0000108F2DC02980028EFD1791E0E980870DA
:1048D000307800F0200040F0450007F8020D12A8E3
:1048E000C01B00F107081498007800B1012000EB0C
:1048F0000A01019801EBE07105984144401A401EFD
:104900000590E00306D45B462146179A059800F00F
:1049100060F805441498007818B15A4617999047E2
:104920006D1CE00324D55B462146179A059800F0DC
:1049300050F805441CE00498002807DBDDE903017A
:10494000884203DD0098405C179901E017993020F8
:104950005A469047049805F10105401C04900198BF
:10496000401E019004D12E205A46179990476D1C85
:10497000BAF10001AAF1010ADDDC05E017F8010B2C
:104980005A46179990476D1CB8F10001A8F101082B
:10499000F4DC5B462146179A0598ABE62D00000033
:1049A0002B0000002000000030BCBDE8C08F2DE9C6
:1049B000F041044600251E461746880404D405E04D
:1049C00039462020B0476D1C641EF9D52846BDE845
:1049D000F0812DE9F041044600251E469046C803AB
:1049E00001D5302700E02027880404D505E04146A2
:1049F0003846B0476D1C641EF9D52846BDE8F081E5
:104A00004A68002A06D00A68531C0B601070486878
:104A1000401E486070470A68531C0B601070704756
:104A20002DE9F04100240F4680462646FBF722FC84
:104A3000054680280ADC07E018F80420B81904A10C
:104A4000FFF746FB641CB61CAC42F5DBBDE8F08109
:104A5000253032580000000013B5FF2301226946BB
:104A60000248FEF71BF900981CBD00001406002048
:104A7000F4B09FEDBC0A8DED6A0A9FEDBB0A0024DD
:104A80008DED6B0A4FF47A76A346A146354627464C
:104A900070946D94FCF7FCFFFEF751FEFEF79CFC52
:104AA000FEF736FDFEF752FDFEF7CCFCFEF7F6FCF6
:104AB000FEF77CFCFEF730FC642206A9AB48FCF74D
:104AC000EBFBFFF7C3F8AAA0FFF7DAFA42F2107A7D
:104AD0002146B4A0FFF7D4FA082C08D2DFE804F08E
:104AE00004080A0C10151A1CFEF77CFA012488E051
:104AF000B0A002E0B1A004E0B3A0FEF7C3FB80E0E9
:104B0000B9A0FEF7BFFB55467BE0BAA0FEF7BAFBA3
:104B1000354676E0BEA0F0E7002F72D1BBF1010F61
:104B20006FD16BA96AA8FEF77BFA00200146024606
:104B30000DF1180353F82070401CC0B2394453F8EB
:104B40002070401CC0B23A446428F3D33220B1FB39
:104B5000F0F1B2FBF0F0CDE90001B1F5FA7F12D926
:104B6000642810D2AE4F0022E0213846FCF7E3FD66
:104B700041F65830FCF706FD0122E0213846FCF7EB
:104B8000DAFD00206D903046FCF7FCFC8021A54842
:104B9000FBF753FB4FF40071A348FBF74EFB6B98F8
:104BA000FBF77CFB074688466A98FBF777FB0B46CA
:104BB0000246DDE900108DE88C01CDE904019BA2DD
:104BC00080219848FFF76CFA07469649A2A0FFF7A4
:104BD00057FA944993488031FFF722FF9148A0A2E9
:104BE0008030CDE900704FF400718F48FB1CFFF757
:104BF00057FA8D4998A0FFF743FA8B48FEF742FB1E
:104C00000A274FF400782A4670A98748CDF8C0815A
:104C1000FEF79CFA002807D0012806D0022809D008
:104C200003280ED0042816D096E0072C00D0641C70
:104C300030460DE090A0FFF723FA072CF8D10024AE
:104C4000F6E791A0FFF71CFA4FF0010B41F2883014
:104C5000FCF798FC80E074498FA0FFF711FA40211F
:104C60008E48FBF7EAFA8D496F48FEF72DFAC1B27C
:104C70008A4A8BA0FFF704FA8EA18848FBF7E8FA6E
:104C800018B18FA0FFF7FCF966E0844881798DF8B0
:104C9000C411C0798DF8C50171A8FBF7F2FA01467D
:104CA000009090A0FFF7ECF96D9818B168B30098E8
:104CB00060B33DE0009840B340F2712148434FF6A5
:104CC000FF7101EA0010014600908CA0FFF7D8F9AF
:104CD0000022E0215248FCF72EFD0098A0F57A70E2
:104CE000FCF750FC0020FBF783FE3046FCF74AFC43
:104CF0000120FBF77DFE3046FCF744FC0122E02159
:104D00004748FCF718FD00206D9011E000206D90E1
:104D1000FBF76EFE3046FCF735FC0120FBF768FE22
:104D20003046FCF72FFC0122E0213D48FCF703FD53
:104D30005A4832210523417030218171C1710172BD
:104D4000417280F80A90009071A241463648FFF700
:104D5000A7F93548FEF796FA002F3FF4B9AE7F1E4B
:104D6000B6E60000CDCC084200000000DC030020C5
:104D70002A2A2A2A2A2A2A2A2A2A2A2A2A2A2A2A93
:104D80002A2A2A2A48454C4C4F2A2A2A2A2A2A2AE1
:104D90002A2A2A2A2A2A2A2A2A2A2A2A2A2A2A0D90
:104DA0000A000000695573657243617365202564CC
:104DB0000D0A000041540D0A0000000041542B432D
:104DC00046554E3D300D0A0041542B4E4344503D54
:104DD0003138302E3130312E3134372E3131352CBF
:104DE000353638330D0A000041542B4346554E3DAD
:104DF000310D0A0041542B434744434F4E543D313B
:104E00002C224950222C2243544E42220D0A0000EB
:104E100041542B43474154543D310D0A00000000DA
:104E2000000400481C0000209C0100207B2254222A
:104E30003A2225302E3266222C2248223A22253070
:104E40002E3266222C2256223A222564222C224C13
:104E5000223A222564227D0025730D0A00000000FD
:104E600041542B4E4D47533D25642C303025303472
:104E70005825730D0A0000004154206572726F724C
:104E800020210D0A000000004E65742072656164E7
:104E90007920210D0A000000257300009C030020EA
:104EA0007573657220646174615B25645D3A257376
:104EB0000D0A000041414141303030300000000017
:104EC00064657669636520696E666F2075706C6FC6
:104ED0006164207375636365737366756C6C790DBB
:104EE0000A00000043555252454E5420434F4D4D49
:104EF000414E44203A2025640D0A00006C69676821
:104F0000742074696D65203D2025640D0A00000041
:104F100041542B4E4D47533D25642C25730D0A00FB
:104F20000000000000000000010203040607080959
:104F3000A0860100400D0300801A060000350C0019
:104F400040420F0080841E0000093D0000127A00DC
:104F50000024F40000366E010048E801006CDC0219
:104F60000000000001020304004040404040404077
:104F7000404041414141414040404040404040402C
:104F800040404040404040404005020202020202D0
:104F9000020202020202020202202020202020201F
:104FA0002020200202020202020290909090909033
:104FB00010101010101010101010101010101010F1
:104FC0001010101002020202020288888888888865
:104FD0000808080808080808080808080808080851
:104FE000080808080202020240000000694F000899
:104FF00010500008000000201C00000020410008A4
:105000002C5000081C000020FC0A00003041000861
:105010000000000000093D00100000000100000039
:0C50200000000000000000000000000084
:040000050800018D61
:00000001FF
