:020000040800F2
:1000000000070020A10100086B2800082526000831
:100010006928000889080008C931000800000000AC
:10002000000000000000000000000000192A000885
:10003000C7080008000000006D2800081B2A0008FF
:10004000BB010008BB010008BB010008BB010008A0
:10005000BB010008BB010008BB010008BB01000890
:10006000BB010008BB010008BB0100088D080008A7
:10007000BB010008BB010008BB010008BB01000870
:10008000BB010008BB0100086D070008BB010008A8
:10009000BB010008BB010008BB010008BB01000850
:1000A000BB010008BB010008BB010008BB01000840
:1000B000BB0100080000000000000000BB010008B8
:1000C000BB010008BB010008BB010008BB01000820
:1000D000BB010008BB010008BB010008BB01000810
:1000E000BB010008BB010008000000000000000088
:1000F0000000000000000000000000000000000000
:1001000000000000BB01000800000000BB01000867
:100110000000000000000000BB010008BB01000857
:10012000BB010008BB010008BB010008BB010008BF
:10013000BB010008000000000000000000000000FB
:10014000BB010008BB010008BB010008BB0100089F
:10015000BB010008BB010008BB010008BB0100088F
:10016000BB010008BB010008BB0100080000000043
:10017000BB010008BB010008BB0100080000000033
:10018000BB010008BB010008BB010008DFF80CD070
:1001900000F06AFA00480047053B0008000700200D
:1001A0000648804706480047FEE7FEE7FEE7FEE711
:1001B000FEE7FEE7FEE7FEE7FEE7FEE7AD2A000802
:1001C0008D0100082DE9F05F0546002092469B4610
:1001D00088460646814640241BE02846414647465D
:1001E000224600F06DF853465A46C01A914110D38A
:1001F00011461846224600F054F82D1A67EB010804
:100200004F4622460120002100F04BF817EB000971
:100210004E41201EA4F10104DFDC484631462A4647
:10022000434600F000B830BCBDE8C09FD2B201E048
:1002300000F8012B491EFBD270470022F6E710B5EB
:1002400013460A4604461946FFF7F0FF204610BD44
:1002500000F0004230F000400AD0C10D01F560719D
:10026000C0F3160042EA0151C2084007114370472B
:1002700000200146704730B50B4601460020202281
:10028000012409E021FA02F59D4205D303FA02F5A3
:10029000491B04FA02F52844151EA2F10102F1DC03
:1002A00030BD202A04DB203A00FA02F1002070471A
:1002B0009140C2F1200320FA03F3194390407047A4
:1002C000202A04DB203A21FA02F00021704721FAAB
:1002D00002F3D040C2F12002914008431946704712
:1002E0002DE9FE4F804681EA0300C00F0C460090C6
:1002F00021F0004123F00045B8EB0200A94105D2EE
:100300004046214690461C460B46024623F00040DC
:10031000104347D0270DC7F30A00C3F30A510290D8
:10032000401A019040286BDAC3F3130040F4801B9D
:100330000098924620B10023D2EB030A63EB0B0B2B
:1003400001985946C0F140025046FFF7AAFF064601
:100350000D4650465946019A00F098F910EB0800F6
:100360006141002487EA115284EAE7731A4340D0BE
:10037000009A62B3019A012A4FEA075215DC001B6A
:1003800061EB02014FF0004202EA0752CDE9004260
:10039000001C41F5801132462B4600F098F903B05D
:1003A00000F045B840462146F9E7001B61EB020129
:1003B000001C41F5801300185B412018A2F50017BE
:1003C00047EB030140EAD570B6196D4111E06D08A5
:1003D0004FEA360645EAC0754FEA0752001B61EB4B
:1003E0000201001C41F5801149084FEA3000001954
:1003F000514132462B4603B000F01CB800F058B90A
:100400000098012240000023D0EB020263EBE0736E
:10041000009821464FEAE074B8EB000061EB04015C
:10042000E9E783F000435BE781F0004158E730BC27
:10043000BDE8C08F30BCBDE8C04FFFF7DFBF2DE97E
:10044000FE4F81EA030404F0004421F000410094CF
:100450004FF0000B23F0004350EA01045ED052EA53
:1004600003045BD0C3F30A54C1F30A552C44A4F22D
:10047000F3340194A0FB0254C1F3130141F4801141
:10048000C3F3130343F4801301FB024400FB034E48
:10049000840A970A44EA815447EA8357A4FB076811
:1004A00002958D0A05FB07854FEA932C04FB0C543B
:1004B0002705029D4FEA065847EA1637B5EB0805AF
:1004C0006EEB070C870E920E47EA811742EA831201
:1004D000A7FB0201B6EB0B0164EB00042B0D43EA12
:1004E0000C335E1844EB1C50DA465146E7FB020120
:1004F000C5F313044FEA0B3343EA14534FEA0432B3
:10050000019C43EA0603A4F10C040294009CCDE98B
:1005100000B400F0DCF803B000F003B8002001469E
:10052000F9E730BCBDE8C08F2DE9F04D81EA030446
:1005300004F0004B21F0004514464FF0000A23F070
:10054000004150EA050220D054EA01021DD0C5F353
:100550000A570246C5F31303C1F31300C1F30A5649
:1005600040F4801543F48013A7EB0608101BD64611
:1005700008F2FD3873EB050002D308F1010801E031
:1005800092185B41B8F1000F03DA00200146BDE884
:10059000F08D00204FF48011064684460EE0171BB4
:1005A00073EB050705D3121B63EB050306434CEA07
:1005B000010C49084FEA300092185B4150EA0107EC
:1005C000EDD152EA030012D082EA040083EA050169
:1005D000084305D0101BAB4106D20122002306E0E0
:1005E00000224FF0004302E06FF0010253101AEBBB
:1005F00006004CEB085110EB0A0041EB0B01BDE883
:10060000F04D00F055B8C1F30A52C1F3130140F2A6
:10061000FF3341F480119A4202DA0020014670470C
:1006200040F233439A42A2F2334202DC5242FFF7D5
:1006300047BEFFF736BE000030B5041E71F100045E
:1006400004DB4FF00044404264EB0101141E73F1DF
:10065000000405DB1C464FF00043524263EB0403E9
:10066000994208BF904230BD064C074D06E0E06855
:1006700040F0010394E8070098471034AC42F6D3E9
:10068000FFF788FDE83C0008083D0008202A06DB4B
:10069000CB17203A41FA02F043EAE07306E041FA50
:1006A00002F3D040C2F1200291400843194670473E
:1006B00010B5141E73F1000408DA401C41F100016A
:1006C00092185B411A4301D120F0010010BD2DE9C1
:1006D000F04D92469B4611B1B1FA81F202E0B0FAB8
:1006E00080F220329046FFF7DCFD04460F4640EAD8
:1006F0000A0041EA0B0153465A46084313D01146FB
:1007000053EA010019D0C8F140025046FFF7D8FD66
:1007100005460E46504659464246FFF7C2FD08437D
:1007200005D0012004E020463946BDE8F08D0020C8
:10073000054346EAE0762C4337430A986305E40A0A
:10074000A0EB08000022FD0A44EA47540A3002D513
:1007500000200146E9E7010510196941DDE9084576
:1007600000196941BDE8F04DA2E70000014800F022
:10077000ADBA00001400002010B5846A616D11F05C
:10078000500F06D0616DC90625D5204600F09DFAB0
:1007900010BD606D40F40070606520680168090755
:1007A00016D501F04EFF78B12068C068800400289B
:1007B0000ADB606D20F480706065606DC00403D456
:1007C000606D40F001006065204600F07CFA10BDCD
:1007D000C0688007EBE7E16C496BBDE81040084753
:1007E00010B5806A416D41F040014165816D41F075
:1007F0000401816500F069FA10BD10B5806A00F04F
:1008000063FA10BD70B504460068816811F0010FED
:1008100028D18168144A114215D18168D5432940F5
:10082000491C816000F0A4FE064616E0816811F0C4
:10083000010F03D181682940491C816000F098FEB6
:10084000801B022809D9606D40F010006065A06D22
:1008500040F00100A065012070BD20680168C94317
:10086000C907E3D1002070BD3F00008028B10128F6
:1008700007D10421034801F0B1BD0421014801F072
:1008800081BD7047C0000020FEE70000014800F075
:100890009BBC00007800002030B590F8444004F084
:1008A0001C050124AC40056C6C60046863608368BF
:1008B000102B036803D099600068C26030BD9A6055
:1008C0000068C16030BD704770477047704770471F
:1008D000704770472DE9F84F00270446009790F8BD
:1008E0005000DFF8B0930D46B846012811D001261C
:1008F00084F85060206801F0A0FE60B1606D40F0A7
:10090000200060655FF0010784F85080384600F0F1
:10091000D7B90220FBE768680C23052812D8022803
:1009200007D0032807D0042807D0052807D00620C1
:1009300007E06B6006E0122003E0182001E04FF4AE
:1009400080706860D5E90021206803EA911318449B
:10095000036B01F01F014FF01F0C0CFA01FCC2F3F6
:10096000846223EA0C038A4013430363206801F086
:1009700064FE8246206801F05CFE5AEA00001DD148
:10098000AA682968206801F064FE20686969C26865
:10099000C2F3C102520091402A69042A0FD000EB31
:1009A00082002B68026EDFF8F0C203F0F84302EA1F
:1009B0000C020B431A4342F00041016672E0002131
:1009C00001F031FE400320684FF0000172D001F0C9
:1009D0002AFE90FAA0F0B0FA80F1286842036ED0A7
:1009E00090FAA0F0B0FA80F0814204D100221146C2
:1009F000206801F03DFE0121206801F014FE400353
:100A000020684FF001015DD001F00DFE90FAA0F0DA
:100A1000B0FA80F12868420359D090FAA0F0B0FAF9
:100A200080F0814204D100220121206801F020FEE3
:100A30000221206801F0F7FD400320684FF0020119
:100A400048D001F0F0FD90FAA0F0B0FA80F12868EB
:100A5000420344D090FAA0F0B0FA80F0814204D171
:100A600000220221206801F003FE0321206801F02A
:100A7000DAFD400320684FF0030133D001F0D3FDCD
:100A800090FAA0F0B0FA80F1286842032FD090FAD3
:100A9000A0F0B0FA80F0814204D100220321206846
:100AA00001F0E6FD2068816811F0010F22D0ACE072
:100AB00000E004E001F0B7FDC0F384618DE7C0F30E
:100AC000846091E701F0AFFDC0F38461A2E7C0F359
:100AD0008460A6E701F0A7FDC0F38461B7E7C0F327
:100AE0008460BBE701F09FFDC0F38461CCE7C0F3F5
:100AF0008460D0E72A7B296850F8B03FC1F3120C1C
:100B000023EA0C0302F0180C644A22FA0CF20A40A1
:100B100013430360E968494577D1286841031CD035
:100B200090FAA0F1B1FA81F1491C01F01F010929E5
:100B30004FEA403132D8002912D000BF90FAA0F11C
:100B4000B1FA81F101F1010101F01F0106FA01F68C
:100B500009D100BFC0F3846109E0C0F38461E3E719
:100B6000C0F38461EEE790FAA0F1B1FA81F101F1EE
:100B7000010101F01F0146EA816102D1C0F38460E6
:100B800003E090FAA0F0B0FA80F000F1010000F06C
:100B90001F0000EB400041EA005132E000290ED076
:100BA00090FAA0F1B1FA81F101F1010101F01F0108
:100BB00006FA01F606D100BFC0F3846106E0C0F377
:100BC0008461F1E790FAA0F1B1FA81F101F101013C
:100BD00001F01F0146EA816102D1C0F3846003E0A5
:100BE00090FAA0F0B0FA80F000F1010000F01F00D0
:100BF0002B4A00EB400002EB005041EA000141F0BB
:100C00000071AA68206801F024FD26482A68024283
:100C10003FF47AAE24488168244D254B01F0E07101
:100C2000AA421AD10D0218D422689A427FF46CAEFF
:100C3000826841F4000122F0E0720A4382601D489C
:100C40001D490068B0FBF1F000EB4000800000E0BF
:100C5000401E00900028FBD156E6184DAA4207D14D
:100C6000CD0105D422689A42F6D141F080710AE0A4
:100C70006FF00045EA42EFD14A02EDD422689A4271
:100C8000EAD141F48001826822F0E0720A43826076
:100C90003AE6000000007F4000F0FF03FFFF07007E
:100CA000000020FE0000088000030450000052C72E
:100CB000000004500C000020400D0300000084CB15
:100CC00018BCBDE8E08F7047704770472DE9F041D0
:100CD0000446006806684568B0070ED5A8070CD51D
:100CE000606DC00603D4606D40F40060606520460E
:100CF000FFF7EBFD216802200860700701D5680747
:100D000003D4300724D5280722D5606DC00603D44C
:100D1000606D40F400706065206801F092FC88B15D
:100D20002068C16889040DD4016809070AD501F05B
:100D300084FC50B3606D40F010006065A06D40F021
:100D40000100A0652046FFF7BEFF21680C20086067
:100D5000B00601D5A80603D4700645D5680643D56C
:100D6000606DC00603D4606D40F40050606520687B
:100D7000C16C11F0C00F19D05FF0000701F061FCE9
:100D800021680246C868C7B912E02068416821F0AE
:100D90000C014160606D20F480706065606DC0047E
:100DA000D0D4606D40F001006065CBE70127E5E736
:100DB000830113D492B1820410D40A6852060DD56F
:100DC00080020BD4084601F034FCE8B3606D40F0BB
:100DD00010006065A06D40F00100A0652046FFF79F
:100DE00075FD21686020086030060BD5280609D5FE
:100DF000606D40F480306065204600F039F921686C
:100E000080200860F0050CD5E8050AD5606D40F437
:100E1000003060652046FFF75BFD21684FF480706D
:100E20000860B0050CD5A8050AD5606D40F4802097
:100E300060652046FFF74DFD21684FF400700860A3
:100E4000F00617D5E80600E029E013D5606B18B16D
:100E50002068C068C0070AD0606D40F4806060659B
:100E6000A06D40F00200A0652046FFF72EFF21682C
:100E700010200860700523D5680521D5606D40F409
:100E800080406065A06D40F00800A06521684FF4C7
:100E9000806008602046BDE8F041FFF718BD20687B
:100EA000416821F060014160606D20F48050606510
:100EB000606DC00592D4606D40F0010060658DE703
:100EC000BDE8F081F8B54FF0000504002E4600950E
:100ED00002D0606D10B107E00120F8BD204600F09F
:100EE000C9F8A66584F8506020688168C1F3407134
:100EF00019B18168564A1140816020688168C1F348
:100F0000007179B98168534A114041F08051816084
:100F1000514852490068B0FBF1F000E0401E0090DB
:100F20000028FBD120688168C1F3007141B9616D6F
:100F300041F010016165A16D41F00101A16501253C
:100F400001F07BFB616DC90600D430B1606D40F0EB
:100F50001000606501252846F8BD606D20F48070A2
:100F600040F0020060652068806810F0010F0BD12E
:100F70003B48806810F0010F06D13A4861688268EA
:100F800022F47C120A438260E168606B627E08434F
:100F9000A16841EA4231084394F8201040EA014038
:100FA000012904D1A18C304A02EB41410843A16AD6
:100FB00029B101F47071E26A014342EA010021683B
:100FC000CA682A4B1A400243CA60206801F035FB08
:100FD0000646206801F02DFB304315D1207E94F8A1
:100FE0003010800340EA41022068C16844F20203E5
:100FF00099431143C16094F8380001280CD020684F
:10100000016921F001010161206901282068016B5B
:1010100021F00F0111D013E0D4E90F010843D4E906
:1010200011121143084321680A6940F2FC739A4384
:10103000104340F001000861E6E7E269521E1143E7
:101040000163606D20F0020040F00100606582E7FE
:10105000C0FFFF5FC0FFFF7F0C000020400D0300BA
:1010600000000450000304500000FEFF07C0F0FF22
:101070007047000070B586B0064614216846FFF739
:10108000DCF82049306888423AD11F49C86C40F4E6
:101090000050C864C86C00F400500590C86C40F063
:1010A0000100C864C86C002500F0010005905020C4
:1010B00000900B20CDE9010569464FF0904000F00B
:1010C0008BF9134C1148C4E900058020A560C4E9E0
:1010D000035040006061C000A0612020C4E9070502
:1010E000204600F0CFF808B1FFF7EEFBF4640022D1
:1010F00011461220A66200F09FFA122000F08EFA2C
:1011000006B070BD0000045000100240080002400C
:101110007800002070B5044615460E46006801F0C0
:101120008CFAE0BB94F85000012842D0012084F8EA
:1011300050002046FFF766FB002110B184F85010E4
:1011400070BD606D40F60162904340F48070606550
:10115000606DC00404D5A06D20F00600A06500E01D
:10116000A165E26C1448D062E26C14481063E26C32
:101170001348506322681C20106084F850102068C7
:10118000416841F0100141602068C16841F00101EF
:10119000C16021682B4632464031E06C00E008E037
:1011A00000F0D0F821688A68064B1A40121D8A6048
:1011B00070BD022070BD000079070008FB07000821
:1011C000E1070008C0FFFF7FF0B4016C0C68016804
:1011D0000D6890F8442002F01C06042202FA06F37F
:1011E000234211D06B070FD50B689B0603D40B6805
:1011F00023F004030B6090F8441001F01C018A40B6
:10120000016C4A60016B1DE0022303FA06F72742D6
:101210004FF0000C4FF0010218D0AF0716D50C6844
:10122000A40605D40C6824F00A040C6080F825207C
:1012300090F8441001F01C018B40016C4B6080F869
:1012400024C0C16A00291AD0F0BC08470823B34063
:10125000234214D02B0712D50B6823F00E030B602A
:1012600090F84410036C01F01C0102FA01F159607E
:10127000C26380F8252080F824C0416BE2E7F0BC0F
:101280007047000070B568B12B4C036814212B4ADD
:10129000A34209D22A4C1C44B4FBF1F18900C0E9F5
:1012A00010210BE0012070BD234C64421C44B4FBB0
:1012B000F1F189004164204908390164022180F874
:1012C00025101C6847F6F0718C43D0E902152943BC
:1012D000D0E904563543294385692943C569294323
:1012E000056A2943214319608168B1F5804F19D0FF
:1012F000036C0F21934202D152F8A83F02E00E4A3C
:10130000A032136890F8444004F01C04A1408B43C1
:10131000136090F84430416803F01C03994013684F
:10132000194311600021C163012280F8252080F853
:101330002410084670BD000008040240000002406E
:10134000F8FFFDBF70B5044690F824000025012881
:101350000CD0012084F8240094F825600020012E90
:1013600006D084F824000225284670BD022070BDF6
:10137000022684F82560E0632068066826F00106EE
:1013800006602046FFF788FA206B00282068016875
:1013900002D041F00E0106E021F004010160206856
:1013A000016841F00A0101602068016841F0010113
:1013B0000160D9E770B5044600F0DAF80546601C14
:1013C00002D004484068044400F0D2F8401BA04218
:1013D000FAD370BD000000202DE9F84FDFF864B1AA
:1013E00000234FF0010C4FF0030A4FF00F090BF1EF
:1013F000040EA0E00CFA03F6324072D04C68022CC6
:1014000001D0122C0ED1DC0800EB8408D8F8204063
:101410005D07EF0E09FA07F5AC430D69BD402543A2
:10142000C8F8205007685D0091F804800AFA05F4B6
:1014300008F00308A74308FA05F848EA0708C0F8C7
:1014400000804F68012F05D0022F03D0112F01D04B
:10145000122F11D18768D1F80C80A74308FA05F83C
:1014600048EA0708C0F808804768B7430E79C6F312
:1014700000169E403E434660C668A6438C68AC405A
:101480003443C4604C68E40054D52F4C256E45F0BD
:1014900001052566246E23F0030504F00104009481
:1014A0002A4C2E19B4689D072F0F09FA07F5AC4393
:1014B000B0F1904F04D0264DA84203D1012512E08F
:1014C000002510E0234DA84201D102250BE0224D5A
:1014D000A84201D1032506E0204DA84202D10425EF
:1014E00001E027E00725BD402543B560DBF800405B
:1014F0005D464E689443F60300D514432C60DEF835
:10150000004075464E689443B60300D514432C60E2
:101510000C4D08352C684E689443F60200D51443F0
:101520002C60084D0C352C684E689443B60200D5EB
:1015300014432C605B1C0A6832FA03F47FF45AAF40
:1015400000F00EB80004014000100240000001400D
:101550000004004800080048000C00480010004843
:1015600018BCBDE8E08F0AB18161704781627047A5
:101570000148806870470000000000200248816830
:1015800042681144816070470000002010B50024BB
:10159000032000F071F8002000F008F808B10124E1
:1015A00001E000F025F8204610BD000070B50E4E99
:1015B00005460024706898B14FF47A71B1FBF0F0E1
:1015C0000A490968B1FBF0F000F0B4FD40B9102DF4
:1015D00006D200222946501E00F02EF8356000E0A9
:1015E0000124204670BD0000000000200C000020F7
:1015F000094808B5016E41F001010166016E01F074
:1016000001010091816D41F080518165806D00F094
:101610008050009008BD000000100240002809DB47
:1016200000F01F02012191404009800000F1E020FC
:10163000C0F8001170470000F0B40E4B1B680C4658
:10164000C3F30223C3F10705042D00D90425191D96
:10165000072901D2002300E0DB1E012606FA05F16E
:10166000491E214099409E40761E16403143F0BCF1
:1016700001F0BCBD0CED00E0064900F0070208686F
:101680004FF6FF03184040EA0220034A1043086067
:10169000704700000CED00E00000FA051649B0F5B7
:1016A000007F0868C0F3412009D0022805D00868EF
:1016B00020F4C06040F4806008600020704701287A
:1016C000FBD0086820F4C06040F4007008600B484C
:1016D0003222006850430A4AB0FBF2F0401C00E09E
:1016E000401E4A69520501D50028F9D148694005D4
:1016F000E3D5032070470000007000400C0000207C
:1017000040420F000248006800F4C06070470000CB
:10171000007000402DE9F84F044600270088B54DC1
:101720003E46000515D5606C60B1B0F5000F04D0E1
:10173000B0F5400F2BD001270AE0E86840F4803074
:10174000E86024E00021201D01F092F807001ED07F
:101750003E46206880033AD5A86D4FF00008C000CF
:1017600009D4A86D40F08050A865A86D4FF001081D
:1017700000F080500090DFF880A2DAF8001041F409
:101780008071CAF80010FFF7F3FE814610E0D5F82B
:101790008800616C20F440000843C5F88800D8E751
:1017A000FFF7E6FEA0EB0900022801D9032705E0B8
:1017B000DAF80000C005F3D5002F7DD04FEA070608
:1017C000B8F1000F03D0A86D20F08050A8652078F4
:1017D000C00707D0D5F88800216A20F0030008432D
:1017E000C5F888002078800707D5D5F88800616A99
:1017F00020F00C000843C5F888002078400707D582
:10180000D5F88800A16A20F030000843C5F88800A8
:101810002078800607D5D5F88800E16A20F440607A
:101820000843C5F888002088800507D5D5F88800CA
:10183000E16B20F440200843C5F88800208840056B
:1018400007D5D5F88800216C20F440100843C5F86E
:1018500088002078400607D5D5F88800216B20F451
:1018600040500843C5F888002078000607D5D5F811
:101870008800616B20F440400843C5F88800208848
:10188000C00507D5D5F88800A16B20F44030084387
:10189000C5F8880020884FF0006780044FF080680A
:1018A00050D5D5F88800A16C20F040600843C5F8F9
:1018B0008800A06CB84200E005E03BD1E86840F445
:1018C0008010E8603EE0D5F8900010F4407014D02D
:1018D000E16D814211D0D5F89000D5F8901020F438
:1018E000407041F48031C5F89010D5F8901021F483
:1018F0008031C5F89010C5F89000C00711D0FFF7EF
:1019000037FE074641F2883907E000BFFFF730FE97
:10191000C11B494501D9032652E7D5F8900080073D
:10192000F4D5D5F89000E16D20F440700843C5F877
:10193000900045E7404505D10121201D00F098FFAA
:1019400000B106462068000317D5D5F88800E16C81
:1019500020F040600843C5F88800E06CB84204D12C
:10196000E86840F48010E86007E0404505D10121B7
:10197000201D00F07DFF00B106462068400317D50A
:10198000D5F88800216D20F040600843C5F8880034
:10199000206DB84204D1E86840F48010E86007E0A8
:1019A000404505D10121201D00F062FF00B106462F
:1019B0002088400411D5D5F88800616D20F0405092
:1019C0000843C5F88800606DB0F1805F05D1022141
:1019D000201D00F04DFF00B106462088000406D50A
:1019E00055F8880FA16D20F08040084328603046EC
:1019F00000F004B8001002400070004018BCBDE8C0
:101A0000E08F00002DE9F0470F46050058D0404E0A
:101A1000306800F00700B84209D2306820F00700B3
:101A200038433060306800F00700B84248D1287869
:101A3000384CC0072CD06868032811D0022812D077
:101A4000216898B1490500293ADAA16821F003011B
:101A50000143A160FFF78CFD804641F2883910E018
:101A600021688901EFE721688903ECE78907EAE744
:101A7000FFF77EFDA0EB0801494502D90320BDE830
:101A8000F087A068696800F00C00B0EB810FEFD11F
:101A90002878800705D5A068A96820F0F0000843E1
:101AA000A060306800F00700B8420BD9306820F021
:101AB000070038433060306800F00700B84201D0BA
:101AC0000120DCE72878400705D5A068E96820F404
:101AD000E0600843A0602878000706D5A06829695F
:101AE00020F4605040EAC100A06000F03FF8A16817
:101AF000094AC1F30311515C01F01F01C8400749B5
:101B0000086007480068BDE8F047FFF74FBD0000D8
:101B10000020024000100240A03C00080C00002001
:101B2000000000200548064900688968054AC1F39D
:101B30000221515C01F01F01C84070470C000020D9
:101B400000100240E03C000805480649006889682A
:101B5000054AC1F3C221515C01F01F01C840704722
:101B60000C00002000100240E03C000870B5254940
:101B7000002318468A68CC6812F00C0204F00306B1
:101B8000214C4FEA640509D00C2A05D0042A32D032
:101B9000082A00D1284670BD012E10D10B681B0702
:101BA00004D4D1F89430C3F3032302E00B68C3F3E9
:101BB0000313164E56F82330DAB10C2AEBD1C8685D
:101BC00000F00300022818D0032818D01846CA686D
:101BD000CB68C2F30212C3F306234343521CB3FB88
:101BE000F2F2C868C0F34160401C4000B2FBF0F064
:101BF00070BD184670BD204670BD2046E7E72846F8
:101C0000E5E70000001002400024F400B03C0008AA
:101C10002DE9F84304006ED0FD4DA86800F00C06D5
:101C2000E86800F003072078C00663D576B10C2E73
:101C300001D1012F0AD0A0690028286878D040F08F
:101C400001002860FFF794FC80465BE0286880076D
:101C500002D5A0690028DED0216A2868000703D5D4
:101C6000286800F0F00004E0D5F89400F02202EAC1
:101C70001010814216D9084600F090FE00283AD193
:101C8000286840F0080028602868216A20F0F000E9
:101C9000084328606868E16920F47F4040EA012039
:101CA000686015E0286840F0080028602868216A0C
:101CB00020F0F000084328606868E16920F47F4064
:101CC00040EA01206860206A00F068FE0028D6D152
:101CD000FFF74CFFA968CF4AC1F30311515C01F033
:101CE0001F01C840CC490860CC480068FFF75EFC83
:101CF00000287DD12DE0C9E0FFF73AFCA0EB0800F9
:101D0000022876D828688007F6D5286840F00800B1
:101D100028602868216A20F0F0000843286068687D
:101D2000E16920F47F4040EA0120686011E0FFE7AC
:101D300020F001002860FFF71BFC804606E000BF92
:101D4000FFF716FCA0EB08000228DAD82868800705
:101D5000F6D42078C00740D0082E18D00C2E01D120
:101D6000032F14D06068B0F5803F17D0B0F5A02FD6
:101D7000286817D020F480302860286820F480205C
:101D800028606068E0B1FFF7F3FB804614E0286844
:101D9000800322D56068002878D01EE0286840F4CF
:101DA0008030EDE740F480202860F7E7FFF7E0FBA4
:101DB000A0EB08006428A4D828688003F6D50CE0BE
:101DC000FFF7D6FB804605E0FFF7D2FBA0EB08004B
:101DD000642896D828688003F6D4207880073BD5FD
:101DE000042E11D00C2E01D1022F0DD0E06801E09D
:101DF00064E1B8E0002828681ED040F480702860B4
:101E0000FFF7B6FB07460CE0286840050CD5E068F4
:101E10000028C1D008E000BFFFF7AAFBC01B0228C2
:101E200093D828684005F7D56868217C20F0F850E1
:101E300040EA016068600FE020F480702860FFF7DE
:101E400097FB074605E000BFFFF792FBC01B022887
:101E5000B1D828684005F7D42078000729D56069F3
:101E60000028D5F8940012D040F00100C5F8940085
:101E7000FFF77EFB074604E0FFF77AFBC01B022852
:101E800071D8D5F894008007F6D512E04CE120F027
:101E90000100C5F89400FFF76BFB074605E000BFA3
:101EA000FFF766FBC01B02285DD8D5F894008007B9
:101EB000F6D42078400766D5A86D0027C00008D466
:101EC000A86D40F08050A865A86D012700F08050F3
:101ED000009053480168C90512D40168814641F455
:101EE00080710160FFF744FB804605E0FFF740FB8F
:101EF000A0EB0800022836D8D9F80000C005F5D5B7
:101F0000A068012816D00528D5F8900017D020F039
:101F10000100C5F89000D5F8900020F0040000BF43
:101F2000C5F89000A06841F28839C0B1FFF720FBE6
:101F300080460FE0D5F8900040F00100F0E740F057
:101F40000400C5F89000F5E7FFF712FBA0EB0801CD
:101F5000494508D8D5F890008007F5D50EE0FFF781
:101F600007FB804606E07CE0FFF702FBA0EB0801E0
:101F7000494576D8D5F890008007F5D41FB1A86DF3
:101F800020F08050A8652078800628D5606A002857
:101F9000D5F8980012D040F00100C5F89800FFF77E
:101FA000E7FA074605E000BFFFF7E2FAC01B022888
:101FB00057D8D5F898008007F6D510E020F001003A
:101FC000C5F89800FFF7D4FA074604E0FFF7D0FA07
:101FD000C01B022871D8D5F898008007F6D4A06AF3
:101FE000F0B30C2E71D00228286820F08070286091
:101FF0001AD02868000103D4E86820F00300E860E4
:10200000E86808490840E860FFF7B2FA044657E07C
:1020100000100240A03C00080C000020000000203E
:1020200000700040FFFFEEFEFFF7A2FA064604E054
:10203000FFF79EFA801B02283FD828688001F7D45A
:10204000F4E90B016FF00F0202EB01110843218A42
:102050004908520402EB4151A26841EA022101E021
:1020600064E02AE00843217D4FF07E42490802EBFC
:1020700041610843217B40EAC160E9682C4A114074
:102080000843E860286840F080702860E86840F005
:102090008070E860FFF76CFA044604E0FFF768FA26
:1020A000001B022809D828688001F7D53EE000BF50
:1020B000FFF75EFA001B022802D90320BDE8F8836F
:1020C00028688001F4D431E0FFE70128F6D0E86801
:1020D000E26A00F00301914226D1216B00F0700208
:1020E0000901103991421FD1626B00F4FE41B1EB3E
:1020F000022F19D194F8382000F07841B1EBC26F6B
:1021000012D1A18F00F4C00249084905A1F50011C0
:10211000914209D194F8401000F0C0604908490686
:10212000A1F10071814201D00120C7E70020C5E77D
:102130008C809D0110B5401EB0F1807F01D301203D
:1021400010BD4FF0E02460610F21601701F04EF8E0
:102150000020A06107202061002010BD70B590F81C
:102160003C20012A21D0012480F83C40022280F842
:102170003D2003685A689D680D4EB34203D122F496
:1021800070064A68324322F070060A688968324352
:1021900025F0800529435A600268916080F83D402F
:1021A000002180F83C10084670BD022070BD000080
:1021B000002C014010B586B0044614216846FEF795
:1021C0003CF82068B0F1804F15D10C48C16C41F04B
:1021D0000101C164C06C694600F001000590022055
:1021E00000900190002002900390012004904FF095
:1021F0009040FFF7F1F806B010BD0000001002405B
:1022000070B5044690F83C000D4601280ED001261A
:1022100084F83C60022084F83D000C2A45D007DC9D
:102220005AB1042A1BD0082A78D12CE0022070BDB4
:10223000102A4ED0142A71D15DE0206800F09CFC79
:102240002068816941F0080181612068816921F07D
:1022500004018161206881692A69114311E02068C5
:1022600000F0C6FC2068816941F40061816120684A
:10227000816921F480618161206881692A6941EA6C
:10228000022181614AE0206800F0EEFC2068C1690B
:1022900041F00801C1612068C16921F00401C161F8
:1022A0002068C1692A69114311E0206800F016FD19
:1022B0002068C16941F40061C1612068C16921F4ED
:1022C0008061C1612068C1692A6941EA0221C16156
:1022D00024E0206800F032FD2068416D41F00801E3
:1022E00041652068416D21F0040141652068416D20
:1022F0002A69114311E0206800F04EFD2068416D0D
:1023000041F4006141652068416D21F480614165BF
:102310002068416D2A6941EA0221416584F83D60E7
:10232000002084F83C0070BD10B5040003D094F880
:102330003D0010B107E0012010BD002084F83C00F2
:10234000204600F00DF8022084F83D00211D206891
:1023500000F0CEFB012084F83D00002010BD0000FD
:1023600008B50068B0F1804F08D10548816D41F093
:1023700001018165806D00F00100009008BD000042
:102380000010024010B504460068012200F0E6FB90
:102390000E482168814205D00D48814202D00D4887
:1023A000814203D1486C40F4004048642068816851
:1023B000094A1140062906D0B1F5803F03D00168D3
:1023C00041F001010160002010BD0000002C01401F
:1023D00000400140004401400700010010B50446E0
:1023E0000068002200F0BAFB134841F21112216884
:1023F0009310814205D01148814202D01048814299
:1024000009D1086A104206D1086A184203D1486C03
:1024100020F4004048642068016A114206D1016A34
:10242000194203D1016821F001010160012084F803
:102430003D00002010BD0000002C01400040014084
:102440000044014010B5040002D0606F10B107E0F5
:10245000012010BD002084F87000204600F026F80E
:10246000242060672068016821F001010160204696
:1024700000F050FD0128ECD0606A10B1204600F059
:10248000B9FC2068416821F490414160206881686E
:1024900021F02A0181602068016841F0010101609A
:1024A0002046BDE8104000F009BD000070B586B0C0
:1024B000044614216846FDF7C0FE294E2568002118
:1024C0002848022203230724B54221D1056E45F492
:1024D00080450566056E05F480450595C56C45F09B
:1024E0000105C564C06C02AD00F00100059085E8EF
:1024F0001A005802CDE9000269464FF09040FEF7FD
:102500006BFF002203212520FFF796F8252023E00A
:10251000154EB54222D1856D45F480258565856DC2
:1025200005F480250595C56C45F00205C564C06CB1
:1025300002AD00F00200059085E81A004FF44060FB
:10254000CDE9000269460948FEF746FF0022012155
:102550002720FFF771F82720FFF760F806B070BD5D
:1025600000380140001002400048004000040048CC
:102570002DE9F8430446406F1F4616460D462028B5
:102580004ED1CDB1C6B194F87000012848D00120D9
:1025900084F870004FF00008C4F87C802120606748
:1025A000FEF7E6FFA4F850608146A4F85260A068E8
:1025B000B0F5805F03D004E00120BDE8F883206916
:1025C00010B12E46002510E000260EE080212046A6
:1025D00000F0CAFDB8B9C6B116F8010B216808852C
:1025E000B4F85200401EA4F85200B4F852004B4612
:1025F0004FF0000200970028E8D14FF0400120463C
:1026000000F0B2FD30B10320D7E735F8020BC0F37C
:102610000800E3E72020606784F870800020CCE7A2
:102620000220CAE7FEE700EB8100006E00F0F840F0
:1026300070478068C0F3C00070478068C0F38000B6
:102640007047C06810F4406F01D00020704701202F
:102650007047042303EAD15310B518444369C1F30A
:10266000045107248C40A3438A401343436110BDA7
:1026700000EB8100016E21F00041114301667047BB
:1026800030B587B018216846FDF7D7FD1E481D49B3
:102690000024C0E900140425456101218460C0E9DB
:1026A0000341047641760222C26180F820408462B0
:1026B000C46280F83010446380F83840FEF702FCB2
:1026C00008B1FEF701F9114800900620CDE9010498
:1026D0007F200594CDE9030569460B48FEF7FAF81B
:1026E00008B1FEF7F1F80A4800900C200190694605
:1026F0000548FEF7EFF8002801D0FEF7E5F807B02F
:1027000030BD000000000450140000200008302EEE
:102710000002B025094808B5816C41F001018164CF
:10272000806C002200F00100009011460B20FEF7A3
:1027300083FFBDE808400B20FEF770BF0010024089
:1027400010B586B014216846FDF777FD1848C16CB6
:1027500041F08001C164C16C01F080010591C16C40
:1027600041F00101C164C16C01F001010591C16C2E
:1027700041F00201C164C06C0E4C00F002000590F3
:10278000002210212046FEF7EEFE0122E021204625
:10279000FEF7E9FEF020009001200021CDE90101C3
:1027A000039169462046FEF717FE06B010BD0000F3
:1027B000001002400004004810B58AB000240794BD
:1027C00008941C2168460994FDF737FD16484FF020
:1027D000804101603F21C0E9011440F27111C0E95C
:1027E00003148461FFF7A0FD08B1FEF76DF80794AC
:1027F00007A90D480994FFF7B1FC08B1FEF764F88A
:1028000060200090B920CDE9010404226946064801
:102810000494FFF7F5FC08B1FEF756F80248FFF7FD
:10282000C9FC0AB010BD0000C00000200D4810B562
:102830000B4901604FF4E1314160002181600C22BD
:10284000C160C0E904128161C16101624162FFF7A8
:10285000F9FD002803D0BDE81040FEF735B810BDE3
:102860000038014000020020FEE77047704700007A
:102870002DE9F041444C05468846E0680026810772
:1028800028680DD0E16801F00301814216D1A8B19A
:10289000E0686968C0F30210401C88420ED120E055
:1028A000012804D0022805D0032807D108E02168B8
:1028B000890701E021684905002907DB01265FE05F
:1028C0002168890302D421684903F5E7E1686A6851
:1028D0006FF00F0321F0730103EB02121143014368
:1028E000E160206820F080602060FEF741FE07462E
:1028F00005E000BFFEF73CFEC01B022837D8206869
:102900000001F7D4B8F1000F18D0B8F1010F1DD0B5
:10291000287D4FF07E41400801EB4060A96840EA05
:1029200001202169194A114008432061206840F0C4
:1029300080602060FEF71CFE07461AE0A868297B2D
:10294000000240EAC1602169114AECE7288A114976
:10295000400801EB4050A96840EA012021690E4A75
:10296000E1E700BFFEF704FEC01B022801D90326E1
:1029700006E020680001F5D52069A96908432061B7
:102980003046BDE8F081000000100240FF80FFF9F2
:10299000FF80FF070000E0FFFF809FFFF8B51C4DA0
:1029A00006460024A86DC00002D5FEF7ABFE0DE080
:1029B000A86D40F08050A865A86D00F08050009090
:1029C000FEF7A0FEA96D21F08051A965B0F5007F4A
:1029D00004D0802E07D94FF003040AE0802E08D9D6
:1029E000A02E01D804E001D1022402E0702E00D113
:1029F00001240848016821F00701214301600068B3
:102A000000F00700A04201D00120F8BD0020F8BD71
:102A100000100240002002407047FEF7AFBD2DE9D4
:102A2000F043AFB0442118A8FDF707FC142129A8F2
:102A3000FDF703FC60216846FDF7FFFB012630042B
:102A4000CDE9186002240327CDE922474FF008089A
:102A50004FF00709CDE92694CDE9246818A82894F9
:102A6000FFF7D6F800250F20CDE92A7529902C957F
:102A7000012129A82D95FEF7C5FF44F20100009021
:102A8000000715900011CDE90640CDE904940895A2
:102A9000CDF80C80CDE901766846FEF73BFE2002BA
:102AA000FEF7FCFD2FB0BDE8F08300000D48016883
:102AB00041F4700101600C48016841F001010160BE
:102AC000002181600268094B1A4002608214C260D2
:102AD000026822F48022026081610249C0038039C9
:102AE0000860704788ED00E000100240FFFFF6EA42
:102AF00070B50268164B4FF08046984201D0B04244
:102B000003D122F070044A682243124C124D9842BD
:102B100005D0B04203D0A04201D0A84203D122F494
:102B20004076CA6832434E6922F080023243026026
:102B30008A68C2620A688262984203D0A04201D0C9
:102B4000A84201D1096901630121416170BD000002
:102B5000002C0140004001400044014010B501F04C
:102B60001F030121046A99408C430462016A9A4060
:102B70001143016210BD0000F0B5026A22F00102AB
:102B80000262056A43688269154C25F002052240FD
:102B90000C6822F0030214438A68134E2A43114D35
:102BA000124FA84203D0B04201D0B84206D122F061
:102BB000080CCA6842EA0C0222F00402A84203D0C0
:102BC000B04201D0B84205D14D6923F440731D4392
:102BD0008B692B4343608461496841630262F0BDA5
:102BE0008FFFFEFF002C01400040014000440140E7
:102BF00030B5026A22F010020262046A42688369F8
:102C0000154D2B400D6823F4407343EA052524F04D
:102C100020038C6843EA0413104CA04207D1CC680F
:102C200023F0800343EA041323F0400305E00C4C37
:102C3000A04202D00B4CA04207D14C6922F4406262
:102C400042EA84028C6942EA8402426085614968F2
:102C50008163036230BD0000FF8FFFFE002C014046
:102C6000004001400044014030B5026A22F4807205
:102C70000262046A4268C369144D2B400D6823F058
:102C800003031D4324F400738C6843EA0423104CAF
:102C9000A04207D1CC6823F4006343EA042323F461
:102CA000806305E00B4CA04202D00B4CA04207D140
:102CB0004C6922F4405242EA04128C6942EA04123E
:102CC0004260C5614968C163036230BD8FFFFEFF8A
:102CD000002C0140004001400044014030B5026A30
:102CE00022F480520262046A4268C3690F4D24F4E0
:102CF00000542B400D6823F4407343EA05238D688C
:102D000044EA05340A4DA84205D00A4DA84202D033
:102D1000094DA84204D14D6922F4804242EA85124D
:102D20004260C36149680164046230BDFF8FFFFEE9
:102D3000002C0140004001400044014030B5026ACF
:102D400022F480320262046A4268436D0E4D2B40C9
:102D50000D681D4324F400330C8943EA04430B4CF3
:102D6000A04205D00A4CA04202D00A4CA04204D195
:102D70004C6922F4803242EA042242604565496887
:102D80008165036230BD00008FFFFEFF002C014013
:102D9000004001400044014030B5026A22F4801234
:102DA0000262046A4268436D0E4D24F400142B4005
:102DB0000D6843EA05230D8944EA05540A4DA842EB
:102DC00005D00A4DA84202D0094DA84204D14D6950
:102DD00022F4802242EA8522426043654968C16547
:102DE000046230BDFF8FFFFE002C01400040014017
:102DF0000044014090F82410C90706D001684A68D1
:102E0000836A22F400321A434A6090F8241089073A
:102E100006D501684A68C36A22F480321A434A60C0
:102E200090F82410490706D501684A68036B22F41C
:102E300080221A434A6090F82410090706D50168D9
:102E40004A68436B22F400421A434A6090F8241007
:102E5000C90606D501688A68836B22F480521A433A
:102E60008A6090F82410890606D501688A68C36BC9
:102E700022F400521A438A6090F82410490611D5B2
:102E800001684A68036C22F480121A434A60016C9C
:102E9000B1F5801F06D101684A68436C22F4C00274
:102EA0001A434A6090F82410090606D501684A685A
:102EB000806C22F4002202434A607047F8B5002675
:102EC0000446C667FEF754FB0546206800686FF0AD
:102ED0007E47000708D52B4600224FF400112046FC
:102EE000009700F041F960B92068006840070AD5F2
:102EF0002B4600224FF480012046009700F034F961
:102F000008B10320F8BD20206067A06784F87060D6
:102F10000020F8BD2DE9F04104460368816800698E
:102F2000E56901436069002728430143844A186822
:102F3000844D28400843186020684168E36821F404
:102F40004051194341602168A069914201D0236A30
:102F500018438B6823F4306303438B607A4B2168FA
:102F60007A4899420DD1D0F8880010F0030006D0BD
:102F7000012847D0022843D0032830D144E001255E
:102F80002EE0734B99420BD1D0F8880010F00C0062
:102F900034D0042836D0082832D00C281FD133E092
:102FA0006C4B99420BD1D0F8880010F0300025D03E
:102FB000102827D0202823D0302810D124E0914297
:102FC0000DD1D0F8880010F4406017D0B0F5806FB4
:102FD00018D0B0F5006F13D0B0F5406F14D01025A5
:102FE0005D4B00264FF40040914245D175B1022D52
:102FF0000FD0042D0FD0082D18D10FE00025EFE7DA
:103000000225EDE70425EBE70825E9E7FEF78AFD51
:1030100003E0184602E0FEF7A9FDA8B3626802EBE0
:103020004201814202D8B0EB023F01D9012774E08E
:10303000DFF828815DB1022D0CD0042D13D0082DAE
:10304000F4D150082905401846F1000105E0FEF7CB
:1030500069FD0AE050084249F5E70023FDF7B2F8A0
:10306000A0F5407155E0FEF781FD6268010E030294
:10307000500818187141F0E7E1694FF6EF78814286
:103080002ED1092DD2D200E047E0DFE805F0060995
:103090001F05220505052500C8E7FEF743FD01E0F1
:1030A000FEF752FD4100606801EB5001B1FBF0F00A
:1030B00080B2A0F110014145B8D84FF6F07101403F
:1030C000C0F3420001432068C16026E025496068E2
:1030D000EAE7FEF74BFDE5E74FF480316068E3E790
:1030E000092DA3D2DFE805F006091E052205050516
:1030F00025009BE7FEF716FD01E0FEF725FD0146E2
:10310000606801EB500100BFB1FBF0F080B2A0F1AC
:10311000100141458AD82168C8602666384666662F
:10312000BDE8F081606803EB5001EDE7FEF71EFD9E
:10313000E5E7616800EB5100B0FBF1F0E6E7000065
:1031400000800040F369FFEF0038014000100240AA
:1031500000440040004800400024F400FFFC0F0041
:10316000000024F40048E8012DE9F0419846174694
:103170000E460446069D08E0681C06D0FEF7F8F9E6
:10318000A0EB0800A8420BD855B12068C06936EA08
:10319000000017D00020B842EED00020BDE8F0813A
:1031A0002068016821F4D07101602068816821F0F5
:1031B0000101816020206067A067002084F8700012
:1031C0000320EBE70120E6E7FEE700000FB4054B24
:1031D00010B503A9044A029800F0EEF810BC5DF89F
:1031E00014FB0000ED3A0008100000200907090E4A
:1031F000002804DB00F1E02080F80014704700F0A4
:103200000F0000F1E02080F8141D704702E008C8AC
:10321000121F08C1002AFAD170477047002001E050
:1032200001C1121F002AFBD1704700002DE9FF5F8A
:1032300082B00021DDE90430020DDDF840B0034327
:1032400018D044F61050A2F2FF32424315141198E0
:1032500001281FD0A5EB0B00401C5FEA000A4FF0CD
:1032600000064E4FDFF83891B046504615D5CAF1EA
:10327000000413E0119801244AA3012801D16FEA48
:103280000B010298119AC0E90031C0E9024206B070
:1032900000F08EB8CBF10000DFE704460021404A81
:1032A000491842EB0450CDE9001012E0E00707D0C6
:1032B00032463B4640464946FDF7C1F880468946BE
:1032C00032463B4610461946FDF7B9F806460F460A
:1032D0006410002CEAD1DDE90401DDE90023BAF134
:1032E000000F06DAFDF7ABF842464B46FDF7A7F8AC
:1032F00005E0FDF719F942464B46FDF715F904467E
:103300000E460022284BFDF797F903D84FF0FF3007
:10331000014607E00022254B20463146FCF7E0FF3E
:10332000FDF771F9102409E0002C0ADB0A220023C2
:10333000FCF748FF039B30321A55641E50EA010225
:10334000F2D1641C039AC4F111031444119A012AA6
:1033500003D0012208430DD10AE0084304D0002025
:103360004FF0110B119072E7A3EB0B056D1E0DE0F2
:103370005B4504DD4FF0000205F1010504E003DACE
:103380004FF00002A5F10105002AECD00298119936
:10339000C0E90231C0E9004579E7000000001440AF
:1033A0000000F03F300000000000F0430000E03F6C
:1033B00030BCBDE8C09F00002DE9FF4F95B09B4693
:1033C0008946064600250FE2252877D100242746A6
:1033D000F84A0121059400E0044316F8013F203B20
:1033E00001FA03F01042F7D130782A2811D06FF09B
:1033F0002F033078A0F13002092A16D8059A44F03C
:10340000020402EB820203EB42021044761C059098
:10341000EFE759F8042B0592002A03DA504244F4EE
:103420000054059044F00204761C30782E2816D102
:1034300016F8010F44F004042A280DD06FF02F0273
:103440003078A0F13003092B09D807EB870302EB92
:103450004303C718761CF3E759F8047B761C3078D1
:103460006C280FD006DC4C2817D068280DD06A28AD
:1034700014D104E0742810D07A280FD10DE044F460
:1034800000140AE044F4801401E044F4401472781B
:10349000824202D104F58014761C761C30786628AE
:1034A0000BD013DC582877D009DC002875D04528CC
:1034B000F6D04628F4D047281AD19DE118E06328B9
:1034C00035D0642879D0652812D195E1702873D061
:1034D00008DC6728F1D069286FD06E280DD06F28DE
:1034E00006D1B5E073282CD0752875D0782874D013
:1034F0005A46179990476D1C75E1C4F30250022893
:1035000009D003280DD0D9F8001004280DD00D6083
:1035100009F1040967E1D9F80010EA17C1E900527E
:10352000F6E7D9F800100D80F2E70D70F0E719F812
:10353000041B8DF8001000208DF80100EA460120E0
:1035400003E059F804AB4FF0FF3061074FF0000182
:1035500002D40DE008F101018846B9420FDA804536
:10356000F8DB1AF808100029F4D108E008F101018D
:1035700088468142FADB1AF808100029F6D105982E
:103580005B46A0EB080721463846179A00F097FAE9
:10359000284400EB080507E04DE029E10DE01AF8AA
:1035A000010B5A4617999047B8F10108F7D25B46CC
:1035B00021463846179A13E142E00A220092C4F3EA
:1035C00002524FF0000A022A08D059F804CB032A0D
:1035D0004FEAEC710AD00DE029E02AE009F1070179
:1035E00021F00702F2E802C1914609E00FFA8CFCD3
:1035F0004FEAEC71042A03D14FFA8CFC4FEAEC71CC
:10360000002907DA0A460021DCF1000C61EB020117
:103610002D2202E0220504D52B228DF80420012260
:1036200003E0E20701D02022F7E7904659E00A21A3
:1036300002E010220DE010214FF0000A00910BE093
:1036400010224FF0000A44F004040827009203E01F
:1036500008224FF0000A0092C4F30252022A05D059
:1036600059F804CB0021032A08D009E009F1070129
:1036700021F00702F2E802C1914605E01FFA8CFC36
:10368000042A01D10CF0FF0C4FF00008220728D5C6
:10369000702806D0009B83F0100353EA0A0305D07C
:1036A0000EE040228DF80420012208E05CEA0102CD
:1036B00006D030228DF804208DF8050002229046B5
:1036C000009B83F0080353EA0A030AD15CEA010273
:1036D00001D1620705D530228DF804204FF0010892
:1036E0007F1E582804D034A003900EA802900DE04D
:1036F00036A0F9E753466046009AFCF763FD84461E
:103700000398825C0298401E029002705CEA0100FD
:10371000F0D1029806A9081A00F1200A600702D524
:1037200024F4803400E00127574502DDA7EB0A00AE
:1037300000E0002000EB0A01009005984144401A87
:103740000590E00306D45B462146179A059800F0E1
:10375000B6F90544002706E001A85A46C05D17994E
:1037600090476D1C7F1C4745F6DBE0030CD55B469C
:103770002146179A059800F0A2F9054404E030208C
:103780005A46179990476D1C0099481E00900029D1
:10379000F5DC08E0029802995A460078491C02912B
:1037A000179990476D1CBAF10001AAF1010AF1DCEA
:1037B00065E10000092801003031323334353637F5
:1037C000383961626364656600000000303132336D
:1037D000343536373839414243444546000000000D
:1037E00000F05BF90544761C307800287FF4ECADDE
:1037F00019B0284600F04EB9620700D4062709F137
:10380000070222F0070CFCE80223E14603F000481F
:103810005FEA080C02D00FF2702C0DE05FEA045C46
:1038200002D50FF2682C07E05FEAC47C02D00FF2E9
:10383000602C01E0AFF2700C4FF0FF3823F0004332
:10384000CDF850C065280CD006DC452809D04628A4
:103850001DD047283DD13DE0662818D067287ED18D
:1038600038E00021112F01DB112000E0781CCDE9A8
:10387000000106A90EA8FFF7D9FCDDE90F010E9A99
:1038800003910021009207F1010A04914DE04FF0ED
:1038900000400097CDE9011006A90EA8FFF7C6FC6D
:1038A000DDE90F0203920E9B11990022DDF80CA0B6
:1038B0000093049211B9791C00EB010AB7EB0A00DE
:1038C00004D4C0F1FF3007F1010A0490AAEB07000D
:1038D000019044E0012F00DA01270021112F01DDC2
:1038E000112000E03846CDE9000106A90EA8FFF737
:1038F0009DFCDDE90F010E9A0391002104910092D5
:10390000BA4621070CD40399514500DA8A46BAF128
:10391000010F05DD009AAAF10101515C302908D0A0
:10392000B84202DA10F1040F06DA0121CDE90110E4
:1039300015E0AAF10101E9E7002805DC049901443A
:103940000491AAEB000102E0411C514500DD8A46CA
:103950000499401A401C01904FF00040029020074B
:1039600004D40198504501DBCDF8048000208DF887
:103970004F0002980DF14F07B0F1004F25D02B20DA
:103980000E9002984FF0020800280CDA4042029094
:103990002D200E9007E00A210298FCF76CFC3031D4
:1039A000029007F8011DB8F10001A8F10108F2DC4E
:1039B00002980028EFD1791E0E980870307800F038
:1039C000200040F0450007F8020D12A8C01B00F1CE
:1039D00007081498007800B1012000EB0A01019853
:1039E00001EBE07105984144401A401E0590E00348
:1039F00006D45B462146179A059800F060F8054406
:103A00001498007818B15A46179990476D1CE00336
:103A100024D55B462146179A059800F050F80544D6
:103A20001CE00498002807DBDDE90301884203DD80
:103A30000098405C179901E0179930205A4690474A
:103A4000049805F10105401C04900198401E019066
:103A500004D12E205A46179990476D1CBAF10001E7
:103A6000AAF1010ADDDC05E017F8010B5A461799A7
:103A700090476D1CB8F10001A8F10108F4DC5B4629
:103A80002146179A0598ABE62D0000002B00000098
:103A90002000000030BCBDE8C08F2DE9F041044695
:103AA00000251E461746880404D405E03946202028
:103AB000B0476D1C641EF9D52846BDE8F0812DE99C
:103AC000F041044600251E469046C80301D5302724
:103AD00000E02027880404D505E041463846B04779
:103AE0006D1C641EF9D52846BDE8F08113B5FF238F
:103AF000012269460248FEF73BFD00981CBD00000C
:103B0000000200202DED028BE4B0FDF73FFDFEF733
:103B100086FFFEF715FEFEF74FFEFEF7FBFDFEF7F4
:103B2000AFFDFEF783FE642269463448FDF7F2FAE2
:103B30004FF4FA786E464FF47A770120FCF796FE40
:103B40003846FDF737FC0020FCF790FE3846FDF7BD
:103B500031FC4046FDF72EFC002002464FEA0001F2
:103B600056F82030401CC0B21A4456F82030401C91
:103B7000C0B219446428F3D33220B2FBF0F4B1FB95
:103B8000F0F51FA0FFF722FB214627A0FFF71EFB41
:103B9000294628A0FFF71AFB00EE104A9FED288A5D
:103BA000DFED288AB8EE400A20EE080A20EE280A47
:103BB00010EE100AFCF74CFB41EC100B22A053EC6A
:103BC000102BFFF703FB00EE105AB8EE400A20EE70
:103BD000080A20EE280A10EE100AFCF739FB41EC27
:103BE000100B1FA053EC102BFFF7F0FA22A0FFF7E9
:103BF000EDFA3846FDF7DEFB9FE7000014000020D9
:103C00000D0A2A2A2A2A2A2A2A2A20414443204401
:103C10004D41204578616D706C65202A2A2A2A2A38
:103C20002A2A2A0D0A0D0A0061646331203D2025ED
:103C3000640D0A0061646332203D2025640D0A0092
:103C40003333534000008039566F69636520566FE7
:103C50006C746167653A20252E3366560D0A0000A4
:103C60004C6967687420566F6C746167653A2025EB
:103C70002E3366560D0A00000D0A2A2A2A2A2A2AFD
:103C80002A2A456E6420414443204578616D706C5A
:103C900065202A2A2A2A2A2A2A2A0D0A0000000038
:103CA00000000000000000000102030406070809EC
:103CB000A0860100400D0300801A060000350C00AC
:103CC00040420F0080841E0000093D0000127A006F
:103CD0000024F40000366E010048E801006CDC02AC
:103CE0000000000001020304083D0008000000205D
:103CF000140000000C3200081C3D000814000020D5
:103D0000EC0600001C32000810000000010000005A
:0C3D10000000000000093D000000000061
:040000050800018D61
:00000001FF
